{
  "contracts/TieredTokenLocker.sol": {
    "TieredTokenLocker": {
      "abi": [
        {
          "inputs": [
            {
              "internalType": "address",
              "name": "tokenAddress",
              "type": "address"
            },
            {
              "internalType": "uint256",
              "name": "_lockPeriod",
              "type": "uint256"
            }
          ],
          "stateMutability": "nonpayable",
          "type": "constructor"
        },
        {
          "inputs": [],
          "name": "LockPeriodNotExpired",
          "type": "error"
        },
        {
          "inputs": [],
          "name": "MinimumBasicThreshold",
          "type": "error"
        },
        {
          "inputs": [],
          "name": "NoExistingLocking",
          "type": "error"
        },
        {
          "inputs": [],
          "name": "NonZeroAmount",
          "type": "error"
        },
        {
          "inputs": [],
          "name": "ReentrancyGuardReentrantCall",
          "type": "error"
        },
        {
          "inputs": [
            {
              "internalType": "address",
              "name": "token",
              "type": "address"
            }
          ],
          "name": "SafeERC20FailedOperation",
          "type": "error"
        },
        {
          "anonymous": false,
          "inputs": [
            {
              "indexed": true,
              "internalType": "address",
              "name": "user",
              "type": "address"
            },
            {
              "indexed": false,
              "internalType": "enum ITieredTokenLocker.Tier",
              "name": "oldTier",
              "type": "uint8"
            },
            {
              "indexed": false,
              "internalType": "enum ITieredTokenLocker.Tier",
              "name": "newTier",
              "type": "uint8"
            }
          ],
          "name": "TierUpgraded",
          "type": "event"
        },
        {
          "anonymous": false,
          "inputs": [
            {
              "indexed": true,
              "internalType": "address",
              "name": "user",
              "type": "address"
            },
            {
              "indexed": false,
              "internalType": "uint256",
              "name": "amount",
              "type": "uint256"
            },
            {
              "indexed": false,
              "internalType": "enum ITieredTokenLocker.Tier",
              "name": "oldTier",
              "type": "uint8"
            },
            {
              "indexed": false,
              "internalType": "enum ITieredTokenLocker.Tier",
              "name": "newTier",
              "type": "uint8"
            },
            {
              "indexed": false,
              "internalType": "uint256",
              "name": "newUnlockTime",
              "type": "uint256"
            }
          ],
          "name": "TokensAdded",
          "type": "event"
        },
        {
          "anonymous": false,
          "inputs": [
            {
              "indexed": true,
              "internalType": "address",
              "name": "user",
              "type": "address"
            },
            {
              "indexed": false,
              "internalType": "uint256",
              "name": "amount",
              "type": "uint256"
            },
            {
              "indexed": false,
              "internalType": "enum ITieredTokenLocker.Tier",
              "name": "newTier",
              "type": "uint8"
            },
            {
              "indexed": false,
              "internalType": "uint256",
              "name": "unlockTime",
              "type": "uint256"
            }
          ],
          "name": "TokensLocked",
          "type": "event"
        },
        {
          "anonymous": false,
          "inputs": [
            {
              "indexed": true,
              "internalType": "address",
              "name": "user",
              "type": "address"
            },
            {
              "indexed": false,
              "internalType": "uint256",
              "name": "amount",
              "type": "uint256"
            }
          ],
          "name": "TokensUnlocked",
          "type": "event"
        },
        {
          "inputs": [],
          "name": "BASIC_THRESHOLD",
          "outputs": [
            {
              "internalType": "uint256",
              "name": "",
              "type": "uint256"
            }
          ],
          "stateMutability": "view",
          "type": "function"
        },
        {
          "inputs": [],
          "name": "BRONZE_THRESHOLD",
          "outputs": [
            {
              "internalType": "uint256",
              "name": "",
              "type": "uint256"
            }
          ],
          "stateMutability": "view",
          "type": "function"
        },
        {
          "inputs": [],
          "name": "DIAMOND_THRESHOLD",
          "outputs": [
            {
              "internalType": "uint256",
              "name": "",
              "type": "uint256"
            }
          ],
          "stateMutability": "view",
          "type": "function"
        },
        {
          "inputs": [],
          "name": "GOLD_THRESHOLD",
          "outputs": [
            {
              "internalType": "uint256",
              "name": "",
              "type": "uint256"
            }
          ],
          "stateMutability": "view",
          "type": "function"
        },
        {
          "inputs": [],
          "name": "SILVER_THRESHOLD",
          "outputs": [
            {
              "internalType": "uint256",
              "name": "",
              "type": "uint256"
            }
          ],
          "stateMutability": "view",
          "type": "function"
        },
        {
          "inputs": [
            {
              "internalType": "address",
              "name": "user",
              "type": "address"
            }
          ],
          "name": "getLockInfo",
          "outputs": [
            {
              "internalType": "uint256",
              "name": "amount",
              "type": "uint256"
            },
            {
              "internalType": "uint256",
              "name": "unlockTime",
              "type": "uint256"
            },
            {
              "internalType": "enum ITieredTokenLocker.Tier",
              "name": "tier",
              "type": "uint8"
            },
            {
              "internalType": "bool",
              "name": "canUnlock",
              "type": "bool"
            }
          ],
          "stateMutability": "view",
          "type": "function"
        },
        {
          "inputs": [
            {
              "internalType": "address",
              "name": "user",
              "type": "address"
            }
          ],
          "name": "getRemainingLockTime",
          "outputs": [
            {
              "internalType": "uint256",
              "name": "remainingTime",
              "type": "uint256"
            }
          ],
          "stateMutability": "view",
          "type": "function"
        },
        {
          "inputs": [
            {
              "internalType": "enum ITieredTokenLocker.Tier",
              "name": "tier",
              "type": "uint8"
            }
          ],
          "name": "getTierName",
          "outputs": [
            {
              "internalType": "string",
              "name": "",
              "type": "string"
            }
          ],
          "stateMutability": "pure",
          "type": "function"
        },
        {
          "inputs": [
            {
              "internalType": "address",
              "name": "user",
              "type": "address"
            }
          ],
          "name": "hasActiveLock",
          "outputs": [
            {
              "internalType": "bool",
              "name": "",
              "type": "bool"
            }
          ],
          "stateMutability": "view",
          "type": "function"
        },
        {
          "inputs": [],
          "name": "lockPeriod",
          "outputs": [
            {
              "internalType": "uint256",
              "name": "",
              "type": "uint256"
            }
          ],
          "stateMutability": "view",
          "type": "function"
        },
        {
          "inputs": [
            {
              "internalType": "uint256",
              "name": "amount",
              "type": "uint256"
            }
          ],
          "name": "lockTokens",
          "outputs": [],
          "stateMutability": "nonpayable",
          "type": "function"
        },
        {
          "inputs": [],
          "name": "lockedToken",
          "outputs": [
            {
              "internalType": "contract IERC20",
              "name": "",
              "type": "address"
            }
          ],
          "stateMutability": "view",
          "type": "function"
        },
        {
          "inputs": [
            {
              "internalType": "address",
              "name": "",
              "type": "address"
            }
          ],
          "name": "locks",
          "outputs": [
            {
              "internalType": "uint256",
              "name": "amount",
              "type": "uint256"
            },
            {
              "internalType": "uint256",
              "name": "lastDepositTime",
              "type": "uint256"
            },
            {
              "internalType": "enum ITieredTokenLocker.Tier",
              "name": "currentTier",
              "type": "uint8"
            },
            {
              "internalType": "bool",
              "name": "exists",
              "type": "bool"
            }
          ],
          "stateMutability": "view",
          "type": "function"
        },
        {
          "inputs": [],
          "name": "unlockTokens",
          "outputs": [],
          "stateMutability": "nonpayable",
          "type": "function"
        }
      ],
      "evm": {
        "bytecode": {
          "linkReferences": {},
          "object": "60c060405234801561001057600080fd5b50604051611b16380380611b1683398181016040528101906100329190610185565b6001600081905550600073ffffffffffffffffffffffffffffffffffffffff168273ffffffffffffffffffffffffffffffffffffffff16036100a9576040517f08c379a00000000000000000000000000000000000000000000000000000000081526004016100a090610222565b60405180910390fd5b8173ffffffffffffffffffffffffffffffffffffffff1660808173ffffffffffffffffffffffffffffffffffffffff16815250508060a081815250505050610242565b600080fd5b600073ffffffffffffffffffffffffffffffffffffffff82169050919050565b600061011c826100f1565b9050919050565b61012c81610111565b811461013757600080fd5b50565b60008151905061014981610123565b92915050565b6000819050919050565b6101628161014f565b811461016d57600080fd5b50565b60008151905061017f81610159565b92915050565b6000806040838503121561019c5761019b6100ec565b5b60006101aa8582860161013a565b92505060206101bb85828601610170565b9150509250929050565b600082825260208201905092915050565b7f496e76616c696420746f6b656e20616464726573730000000000000000000000600082015250565b600061020c6015836101c5565b9150610217826101d6565b602082019050919050565b6000602082019050818103600083015261023b816101ff565b9050919050565b60805160a05161187761029f6000396000818161031101528181610403015281816106c501528181610ad201528181610db00152610f560152600081816102ed01528181610bc301528181610cf20152610f0001526118776000f3fe608060405234801561001057600080fd5b50600436106100ea5760003560e01c80636e27d8891161008c578063a20fa31211610066578063a20fa31214610255578063c1a0db3014610285578063e64bd593146102a3578063f968f493146102d3576100ea565b80636e27d889146101e85780637238ccdb14610204578063826dc14214610237576100ea565b806347304494116100c8578063473044941461014957806356973974146101795780635de9a1371461019757806369a2f026146101ca576100ea565b80630b8df9f1146100ef5780630f45cc811461010d5780633fd8b02f1461012b575b600080fd5b6100f76102dd565b6040516101049190611307565b60405180910390f35b6101156102eb565b60405161012291906113a1565b60405180910390f35b61013361030f565b6040516101409190611307565b60405180910390f35b610163600480360381019061015e91906113ff565b610333565b6040516101709190611307565b60405180910390f35b61018161045b565b60405161018e9190611307565b60405180910390f35b6101b160048036038101906101ac91906113ff565b610469565b6040516101c194939291906114be565b60405180910390f35b6101d26104b3565b6040516101df9190611307565b60405180910390f35b61020260048036038101906101fd919061152f565b6104c0565b005b61021e600480360381019061021991906113ff565b6105e8565b60405161022e94939291906114be565b60405180910390f35b61023f610715565b60405161024c9190611307565b60405180910390f35b61026f600480360381019061026a91906113ff565b610722565b60405161027c919061155c565b60405180910390f35b61028d61077b565b60405161029a9190611307565b60405180910390f35b6102bd60048036038101906102b8919061159c565b610789565b6040516102ca9190611659565b60405180910390f35b6102db6109d5565b005b691a784379d99db420000081565b7f000000000000000000000000000000000000000000000000000000000000000081565b7f000000000000000000000000000000000000000000000000000000000000000081565b600080600160008473ffffffffffffffffffffffffffffffffffffffff1673ffffffffffffffffffffffffffffffffffffffff16815260200190815260200160002060405180608001604052908160008201548152602001600182015481526020016002820160009054906101000a900460ff1660058111156103b9576103b861142c565b5b60058111156103cb576103ca61142c565b5b81526020016002820160019054906101000a900460ff161515151581525050905080606001516103ff576000915050610456565b60007f0000000000000000000000000000000000000000000000000000000000000000826020015161043191906116aa565b905080421061044557600092505050610456565b428161045191906116de565b925050505b919050565b69065a4da25d3016c0000081565b60016020528060005260406000206000915090508060000154908060010154908060020160009054906101000a900460ff16908060020160019054906101000a900460ff16905084565b68878678326eac90000081565b6104c8610c61565b60008103610502576040517ff55c854200000000000000000000000000000000000000000000000000000000815260040160405180910390fd5b6000600160003373ffffffffffffffffffffffffffffffffffffffff1673ffffffffffffffffffffffffffffffffffffffff16815260200190815260200160002060405180608001604052908160008201548152602001600182015481526020016002820160009054906101000a900460ff1660058111156105875761058661142c565b5b60058111156105995761059861142c565b5b81526020016002820160019054906101000a900460ff16151515158152505090508060600151156105d2576105cd82610ca7565b6105dc565b6105db82610eb5565b5b506105e56110b5565b50565b6000806000806000600160008773ffffffffffffffffffffffffffffffffffffffff1673ffffffffffffffffffffffffffffffffffffffff16815260200190815260200160002060405180608001604052908160008201548152602001600182015481526020016002820160009054906101000a900460ff1660058111156106735761067261142c565b5b60058111156106855761068461142c565b5b81526020016002820160019054906101000a900460ff161515151581525050905080606001516106c35760008060008094509450945094505061070e565b7f000000000000000000000000000000000000000000000000000000000000000081602001516106f391906116aa565b93508342101591508060000151848260400151945094509450505b9193509193565b681b1ae4d6e2ef50000081565b6000600160008373ffffffffffffffffffffffffffffffffffffffff1673ffffffffffffffffffffffffffffffffffffffff16815260200190815260200160002060020160019054906101000a900460ff169050919050565b69010f0cf064dd5920000081565b606060058081111561079e5761079d61142c565b5b8260058111156107b1576107b061142c565b5b036107f3576040518060400160405280600781526020017f4469616d6f6e640000000000000000000000000000000000000000000000000081525090506109d0565b600460058111156108075761080661142c565b5b82600581111561081a5761081961142c565b5b0361085c576040518060400160405280600481526020017f476f6c640000000000000000000000000000000000000000000000000000000081525090506109d0565b600360058111156108705761086f61142c565b5b8260058111156108835761088261142c565b5b036108c5576040518060400160405280600681526020017f53696c766572000000000000000000000000000000000000000000000000000081525090506109d0565b600260058111156108d9576108d861142c565b5b8260058111156108ec576108eb61142c565b5b0361092e576040518060400160405280600681526020017f42726f6e7a65000000000000000000000000000000000000000000000000000081525090506109d0565b600160058111156109425761094161142c565b5b8260058111156109555761095461142c565b5b03610997576040518060400160405280600581526020017f426173696300000000000000000000000000000000000000000000000000000081525090506109d0565b6040518060400160405280600481526020017f4e6f6e650000000000000000000000000000000000000000000000000000000081525090505b919050565b6109dd610c61565b6000600160003373ffffffffffffffffffffffffffffffffffffffff1673ffffffffffffffffffffffffffffffffffffffff16815260200190815260200160002060405180608001604052908160008201548152602001600182015481526020016002820160009054906101000a900460ff166005811115610a6257610a6161142c565b5b6005811115610a7457610a7361142c565b5b81526020016002820160019054906101000a900460ff16151515158152505090508060600151610ad0576040517f9f9517fa00000000000000000000000000000000000000000000000000000000815260040160405180910390fd5b7f00000000000000000000000000000000000000000000000000000000000000008160200151610b0091906116aa565b421015610b39576040517ff594da3400000000000000000000000000000000000000000000000000000000815260040160405180910390fd5b600081600001519050600160003373ffffffffffffffffffffffffffffffffffffffff1673ffffffffffffffffffffffffffffffffffffffff16815260200190815260200160002060008082016000905560018201600090556002820160006101000a81549060ff02191690556002820160016101000a81549060ff02191690555050610c0733827f000000000000000000000000000000000000000000000000000000000000000073ffffffffffffffffffffffffffffffffffffffff166110bf9092919063ffffffff16565b3373ffffffffffffffffffffffffffffffffffffffff167fe7b379c6c1fa169e9079c25e9143b127637eef8ec8c9d5c06ddb4ab3e119588882604051610c4d9190611307565b60405180910390a25050610c5f6110b5565b565b600260005403610c9d576040517f3ee5aeb500000000000000000000000000000000000000000000000000000000815260040160405180910390fd5b6002600081905550565b6000600160003373ffffffffffffffffffffffffffffffffffffffff1673ffffffffffffffffffffffffffffffffffffffff1681526020019081526020016000209050610d373330847f000000000000000000000000000000000000000000000000000000000000000073ffffffffffffffffffffffffffffffffffffffff1661113e909392919063ffffffff16565b60008160020160009054906101000a900460ff1690506000838360000154610d5f91906116aa565b90506000610d6c826111c0565b9050818460000181905550428460010181905550808460020160006101000a81548160ff02191690836005811115610da757610da661142c565b5b021790555060007f000000000000000000000000000000000000000000000000000000000000000042610dda91906116aa565b90503373ffffffffffffffffffffffffffffffffffffffff167f17f7bd2ed6e916c497152665e2c0d342688ab50d5f657723a46ae8c418ea61da87868585604051610e289493929190611712565b60405180910390a2836005811115610e4357610e4261142c565b5b826005811115610e5657610e5561142c565b5b1115610ead573373ffffffffffffffffffffffffffffffffffffffff167fcbbf00b5f55f1857f9362f521999f79036413e420d1b236d6bc143af30db731a8584604051610ea4929190611757565b60405180910390a25b505050505050565b681b1ae4d6e2ef500000811015610ef8576040517fd6d3239c00000000000000000000000000000000000000000000000000000000815260040160405180910390fd5b610f453330837f000000000000000000000000000000000000000000000000000000000000000073ffffffffffffffffffffffffffffffffffffffff1661113e909392919063ffffffff16565b6000610f50826111c0565b905060007f000000000000000000000000000000000000000000000000000000000000000042610f8091906116aa565b90506040518060800160405280848152602001428152602001836005811115610fac57610fab61142c565b5b815260200160011515815250600160003373ffffffffffffffffffffffffffffffffffffffff1673ffffffffffffffffffffffffffffffffffffffff168152602001908152602001600020600082015181600001556020820151816001015560408201518160020160006101000a81548160ff021916908360058111156110365761103561142c565b5b021790555060608201518160020160016101000a81548160ff0219169083151502179055509050503373ffffffffffffffffffffffffffffffffffffffff167f2783fa8affc4dbba2ac9978c432ce95ab38e9c777e2e6cce5b917801b06414218484846040516110a893929190611780565b60405180910390a2505050565b6001600081905550565b611139838473ffffffffffffffffffffffffffffffffffffffff1663a9059cbb85856040516024016110f29291906117c6565b604051602081830303815290604052915060e01b6020820180517bffffffffffffffffffffffffffffffffffffffffffffffffffffffff838183161783525050505061124c565b505050565b6111ba848573ffffffffffffffffffffffffffffffffffffffff166323b872dd868686604051602401611173939291906117ef565b604051602081830303815290604052915060e01b6020820180517bffffffffffffffffffffffffffffffffffffffffffffffffffffffff838183161783525050505061124c565b50505050565b6000691a784379d99db420000082106111dc5760059050611247565b69065a4da25d3016c0000082106111f65760049050611247565b69010f0cf064dd5920000082106112105760039050611247565b68878678326eac90000082106112295760029050611247565b681b1ae4d6e2ef50000082106112425760019050611247565b600090505b919050565b600080602060008451602086016000885af18061126f576040513d6000823e3d81fd5b3d92506000519150506000821461128a5760018114156112a6565b60008473ffffffffffffffffffffffffffffffffffffffff163b145b156112e857836040517f5274afe70000000000000000000000000000000000000000000000000000000081526004016112df9190611826565b60405180910390fd5b50505050565b6000819050919050565b611301816112ee565b82525050565b600060208201905061131c60008301846112f8565b92915050565b600073ffffffffffffffffffffffffffffffffffffffff82169050919050565b6000819050919050565b600061136761136261135d84611322565b611342565b611322565b9050919050565b60006113798261134c565b9050919050565b600061138b8261136e565b9050919050565b61139b81611380565b82525050565b60006020820190506113b66000830184611392565b92915050565b600080fd5b60006113cc82611322565b9050919050565b6113dc816113c1565b81146113e757600080fd5b50565b6000813590506113f9816113d3565b92915050565b600060208284031215611415576114146113bc565b5b6000611423848285016113ea565b91505092915050565b7f4e487b7100000000000000000000000000000000000000000000000000000000600052602160045260246000fd5b6006811061146c5761146b61142c565b5b50565b600081905061147d8261145b565b919050565b600061148d8261146f565b9050919050565b61149d81611482565b82525050565b60008115159050919050565b6114b8816114a3565b82525050565b60006080820190506114d360008301876112f8565b6114e060208301866112f8565b6114ed6040830185611494565b6114fa60608301846114af565b95945050505050565b61150c816112ee565b811461151757600080fd5b50565b60008135905061152981611503565b92915050565b600060208284031215611545576115446113bc565b5b60006115538482850161151a565b91505092915050565b600060208201905061157160008301846114af565b92915050565b6006811061158457600080fd5b50565b60008135905061159681611577565b92915050565b6000602082840312156115b2576115b16113bc565b5b60006115c084828501611587565b91505092915050565b600081519050919050565b600082825260208201905092915050565b60005b838110156116035780820151818401526020810190506115e8565b60008484015250505050565b6000601f19601f8301169050919050565b600061162b826115c9565b61163581856115d4565b93506116458185602086016115e5565b61164e8161160f565b840191505092915050565b600060208201905081810360008301526116738184611620565b905092915050565b7f4e487b7100000000000000000000000000000000000000000000000000000000600052601160045260246000fd5b60006116b5826112ee565b91506116c0836112ee565b92508282019050808211156116d8576116d761167b565b5b92915050565b60006116e9826112ee565b91506116f4836112ee565b925082820390508181111561170c5761170b61167b565b5b92915050565b600060808201905061172760008301876112f8565b6117346020830186611494565b6117416040830185611494565b61174e60608301846112f8565b95945050505050565b600060408201905061176c6000830185611494565b6117796020830184611494565b9392505050565b600060608201905061179560008301866112f8565b6117a26020830185611494565b6117af60408301846112f8565b949350505050565b6117c0816113c1565b82525050565b60006040820190506117db60008301856117b7565b6117e860208301846112f8565b9392505050565b600060608201905061180460008301866117b7565b61181160208301856117b7565b61181e60408301846112f8565b949350505050565b600060208201905061183b60008301846117b7565b9291505056fea264697066735822122092396fc881ca7456fed67dcf763fca779de0615780ae64dfdfb54e365e92d5a764736f6c634300081c0033",
          "opcodes": "PUSH1 0xC0 PUSH1 0x40 MSTORE CALLVALUE DUP1 ISZERO PUSH2 0x10 JUMPI PUSH1 0x0 DUP1 REVERT JUMPDEST POP PUSH1 0x40 MLOAD PUSH2 0x1B16 CODESIZE SUB DUP1 PUSH2 0x1B16 DUP4 CODECOPY DUP2 DUP2 ADD PUSH1 0x40 MSTORE DUP2 ADD SWAP1 PUSH2 0x32 SWAP2 SWAP1 PUSH2 0x185 JUMP JUMPDEST PUSH1 0x1 PUSH1 0x0 DUP2 SWAP1 SSTORE POP PUSH1 0x0 PUSH20 0xFFFFFFFFFFFFFFFFFFFFFFFFFFFFFFFFFFFFFFFF AND DUP3 PUSH20 0xFFFFFFFFFFFFFFFFFFFFFFFFFFFFFFFFFFFFFFFF AND SUB PUSH2 0xA9 JUMPI PUSH1 0x40 MLOAD PUSH32 0x8C379A000000000000000000000000000000000000000000000000000000000 DUP2 MSTORE PUSH1 0x4 ADD PUSH2 0xA0 SWAP1 PUSH2 0x222 JUMP JUMPDEST PUSH1 0x40 MLOAD DUP1 SWAP2 SUB SWAP1 REVERT JUMPDEST DUP2 PUSH20 0xFFFFFFFFFFFFFFFFFFFFFFFFFFFFFFFFFFFFFFFF AND PUSH1 0x80 DUP2 PUSH20 0xFFFFFFFFFFFFFFFFFFFFFFFFFFFFFFFFFFFFFFFF AND DUP2 MSTORE POP POP DUP1 PUSH1 0xA0 DUP2 DUP2 MSTORE POP POP POP POP PUSH2 0x242 JUMP JUMPDEST PUSH1 0x0 DUP1 REVERT JUMPDEST PUSH1 0x0 PUSH20 0xFFFFFFFFFFFFFFFFFFFFFFFFFFFFFFFFFFFFFFFF DUP3 AND SWAP1 POP SWAP2 SWAP1 POP JUMP JUMPDEST PUSH1 0x0 PUSH2 0x11C DUP3 PUSH2 0xF1 JUMP JUMPDEST SWAP1 POP SWAP2 SWAP1 POP JUMP JUMPDEST PUSH2 0x12C DUP2 PUSH2 0x111 JUMP JUMPDEST DUP2 EQ PUSH2 0x137 JUMPI PUSH1 0x0 DUP1 REVERT JUMPDEST POP JUMP JUMPDEST PUSH1 0x0 DUP2 MLOAD SWAP1 POP PUSH2 0x149 DUP2 PUSH2 0x123 JUMP JUMPDEST SWAP3 SWAP2 POP POP JUMP JUMPDEST PUSH1 0x0 DUP2 SWAP1 POP SWAP2 SWAP1 POP JUMP JUMPDEST PUSH2 0x162 DUP2 PUSH2 0x14F JUMP JUMPDEST DUP2 EQ PUSH2 0x16D JUMPI PUSH1 0x0 DUP1 REVERT JUMPDEST POP JUMP JUMPDEST PUSH1 0x0 DUP2 MLOAD SWAP1 POP PUSH2 0x17F DUP2 PUSH2 0x159 JUMP JUMPDEST SWAP3 SWAP2 POP POP JUMP JUMPDEST PUSH1 0x0 DUP1 PUSH1 0x40 DUP4 DUP6 SUB SLT ISZERO PUSH2 0x19C JUMPI PUSH2 0x19B PUSH2 0xEC JUMP JUMPDEST JUMPDEST PUSH1 0x0 PUSH2 0x1AA DUP6 DUP3 DUP7 ADD PUSH2 0x13A JUMP JUMPDEST SWAP3 POP POP PUSH1 0x20 PUSH2 0x1BB DUP6 DUP3 DUP7 ADD PUSH2 0x170 JUMP JUMPDEST SWAP2 POP POP SWAP3 POP SWAP3 SWAP1 POP JUMP JUMPDEST PUSH1 0x0 DUP3 DUP3 MSTORE PUSH1 0x20 DUP3 ADD SWAP1 POP SWAP3 SWAP2 POP POP JUMP JUMPDEST PUSH32 0x496E76616C696420746F6B656E20616464726573730000000000000000000000 PUSH1 0x0 DUP3 ADD MSTORE POP JUMP JUMPDEST PUSH1 0x0 PUSH2 0x20C PUSH1 0x15 DUP4 PUSH2 0x1C5 JUMP JUMPDEST SWAP2 POP PUSH2 0x217 DUP3 PUSH2 0x1D6 JUMP JUMPDEST PUSH1 0x20 DUP3 ADD SWAP1 POP SWAP2 SWAP1 POP JUMP JUMPDEST PUSH1 0x0 PUSH1 0x20 DUP3 ADD SWAP1 POP DUP2 DUP2 SUB PUSH1 0x0 DUP4 ADD MSTORE PUSH2 0x23B DUP2 PUSH2 0x1FF JUMP JUMPDEST SWAP1 POP SWAP2 SWAP1 POP JUMP JUMPDEST PUSH1 0x80 MLOAD PUSH1 0xA0 MLOAD PUSH2 0x1877 PUSH2 0x29F PUSH1 0x0 CODECOPY PUSH1 0x0 DUP2 DUP2 PUSH2 0x311 ADD MSTORE DUP2 DUP2 PUSH2 0x403 ADD MSTORE DUP2 DUP2 PUSH2 0x6C5 ADD MSTORE DUP2 DUP2 PUSH2 0xAD2 ADD MSTORE DUP2 DUP2 PUSH2 0xDB0 ADD MSTORE PUSH2 0xF56 ADD MSTORE PUSH1 0x0 DUP2 DUP2 PUSH2 0x2ED ADD MSTORE DUP2 DUP2 PUSH2 0xBC3 ADD MSTORE DUP2 DUP2 PUSH2 0xCF2 ADD MSTORE PUSH2 0xF00 ADD MSTORE PUSH2 0x1877 PUSH1 0x0 RETURN INVALID PUSH1 0x80 PUSH1 0x40 MSTORE CALLVALUE DUP1 ISZERO PUSH2 0x10 JUMPI PUSH1 0x0 DUP1 REVERT JUMPDEST POP PUSH1 0x4 CALLDATASIZE LT PUSH2 0xEA JUMPI PUSH1 0x0 CALLDATALOAD PUSH1 0xE0 SHR DUP1 PUSH4 0x6E27D889 GT PUSH2 0x8C JUMPI DUP1 PUSH4 0xA20FA312 GT PUSH2 0x66 JUMPI DUP1 PUSH4 0xA20FA312 EQ PUSH2 0x255 JUMPI DUP1 PUSH4 0xC1A0DB30 EQ PUSH2 0x285 JUMPI DUP1 PUSH4 0xE64BD593 EQ PUSH2 0x2A3 JUMPI DUP1 PUSH4 0xF968F493 EQ PUSH2 0x2D3 JUMPI PUSH2 0xEA JUMP JUMPDEST DUP1 PUSH4 0x6E27D889 EQ PUSH2 0x1E8 JUMPI DUP1 PUSH4 0x7238CCDB EQ PUSH2 0x204 JUMPI DUP1 PUSH4 0x826DC142 EQ PUSH2 0x237 JUMPI PUSH2 0xEA JUMP JUMPDEST DUP1 PUSH4 0x47304494 GT PUSH2 0xC8 JUMPI DUP1 PUSH4 0x47304494 EQ PUSH2 0x149 JUMPI DUP1 PUSH4 0x56973974 EQ PUSH2 0x179 JUMPI DUP1 PUSH4 0x5DE9A137 EQ PUSH2 0x197 JUMPI DUP1 PUSH4 0x69A2F026 EQ PUSH2 0x1CA JUMPI PUSH2 0xEA JUMP JUMPDEST DUP1 PUSH4 0xB8DF9F1 EQ PUSH2 0xEF JUMPI DUP1 PUSH4 0xF45CC81 EQ PUSH2 0x10D JUMPI DUP1 PUSH4 0x3FD8B02F EQ PUSH2 0x12B JUMPI JUMPDEST PUSH1 0x0 DUP1 REVERT JUMPDEST PUSH2 0xF7 PUSH2 0x2DD JUMP JUMPDEST PUSH1 0x40 MLOAD PUSH2 0x104 SWAP2 SWAP1 PUSH2 0x1307 JUMP JUMPDEST PUSH1 0x40 MLOAD DUP1 SWAP2 SUB SWAP1 RETURN JUMPDEST PUSH2 0x115 PUSH2 0x2EB JUMP JUMPDEST PUSH1 0x40 MLOAD PUSH2 0x122 SWAP2 SWAP1 PUSH2 0x13A1 JUMP JUMPDEST PUSH1 0x40 MLOAD DUP1 SWAP2 SUB SWAP1 RETURN JUMPDEST PUSH2 0x133 PUSH2 0x30F JUMP JUMPDEST PUSH1 0x40 MLOAD PUSH2 0x140 SWAP2 SWAP1 PUSH2 0x1307 JUMP JUMPDEST PUSH1 0x40 MLOAD DUP1 SWAP2 SUB SWAP1 RETURN JUMPDEST PUSH2 0x163 PUSH1 0x4 DUP1 CALLDATASIZE SUB DUP2 ADD SWAP1 PUSH2 0x15E SWAP2 SWAP1 PUSH2 0x13FF JUMP JUMPDEST PUSH2 0x333 JUMP JUMPDEST PUSH1 0x40 MLOAD PUSH2 0x170 SWAP2 SWAP1 PUSH2 0x1307 JUMP JUMPDEST PUSH1 0x40 MLOAD DUP1 SWAP2 SUB SWAP1 RETURN JUMPDEST PUSH2 0x181 PUSH2 0x45B JUMP JUMPDEST PUSH1 0x40 MLOAD PUSH2 0x18E SWAP2 SWAP1 PUSH2 0x1307 JUMP JUMPDEST PUSH1 0x40 MLOAD DUP1 SWAP2 SUB SWAP1 RETURN JUMPDEST PUSH2 0x1B1 PUSH1 0x4 DUP1 CALLDATASIZE SUB DUP2 ADD SWAP1 PUSH2 0x1AC SWAP2 SWAP1 PUSH2 0x13FF JUMP JUMPDEST PUSH2 0x469 JUMP JUMPDEST PUSH1 0x40 MLOAD PUSH2 0x1C1 SWAP5 SWAP4 SWAP3 SWAP2 SWAP1 PUSH2 0x14BE JUMP JUMPDEST PUSH1 0x40 MLOAD DUP1 SWAP2 SUB SWAP1 RETURN JUMPDEST PUSH2 0x1D2 PUSH2 0x4B3 JUMP JUMPDEST PUSH1 0x40 MLOAD PUSH2 0x1DF SWAP2 SWAP1 PUSH2 0x1307 JUMP JUMPDEST PUSH1 0x40 MLOAD DUP1 SWAP2 SUB SWAP1 RETURN JUMPDEST PUSH2 0x202 PUSH1 0x4 DUP1 CALLDATASIZE SUB DUP2 ADD SWAP1 PUSH2 0x1FD SWAP2 SWAP1 PUSH2 0x152F JUMP JUMPDEST PUSH2 0x4C0 JUMP JUMPDEST STOP JUMPDEST PUSH2 0x21E PUSH1 0x4 DUP1 CALLDATASIZE SUB DUP2 ADD SWAP1 PUSH2 0x219 SWAP2 SWAP1 PUSH2 0x13FF JUMP JUMPDEST PUSH2 0x5E8 JUMP JUMPDEST PUSH1 0x40 MLOAD PUSH2 0x22E SWAP5 SWAP4 SWAP3 SWAP2 SWAP1 PUSH2 0x14BE JUMP JUMPDEST PUSH1 0x40 MLOAD DUP1 SWAP2 SUB SWAP1 RETURN JUMPDEST PUSH2 0x23F PUSH2 0x715 JUMP JUMPDEST PUSH1 0x40 MLOAD PUSH2 0x24C SWAP2 SWAP1 PUSH2 0x1307 JUMP JUMPDEST PUSH1 0x40 MLOAD DUP1 SWAP2 SUB SWAP1 RETURN JUMPDEST PUSH2 0x26F PUSH1 0x4 DUP1 CALLDATASIZE SUB DUP2 ADD SWAP1 PUSH2 0x26A SWAP2 SWAP1 PUSH2 0x13FF JUMP JUMPDEST PUSH2 0x722 JUMP JUMPDEST PUSH1 0x40 MLOAD PUSH2 0x27C SWAP2 SWAP1 PUSH2 0x155C JUMP JUMPDEST PUSH1 0x40 MLOAD DUP1 SWAP2 SUB SWAP1 RETURN JUMPDEST PUSH2 0x28D PUSH2 0x77B JUMP JUMPDEST PUSH1 0x40 MLOAD PUSH2 0x29A SWAP2 SWAP1 PUSH2 0x1307 JUMP JUMPDEST PUSH1 0x40 MLOAD DUP1 SWAP2 SUB SWAP1 RETURN JUMPDEST PUSH2 0x2BD PUSH1 0x4 DUP1 CALLDATASIZE SUB DUP2 ADD SWAP1 PUSH2 0x2B8 SWAP2 SWAP1 PUSH2 0x159C JUMP JUMPDEST PUSH2 0x789 JUMP JUMPDEST PUSH1 0x40 MLOAD PUSH2 0x2CA SWAP2 SWAP1 PUSH2 0x1659 JUMP JUMPDEST PUSH1 0x40 MLOAD DUP1 SWAP2 SUB SWAP1 RETURN JUMPDEST PUSH2 0x2DB PUSH2 0x9D5 JUMP JUMPDEST STOP JUMPDEST PUSH10 0x1A784379D99DB4200000 DUP2 JUMP JUMPDEST PUSH32 0x0 DUP2 JUMP JUMPDEST PUSH32 0x0 DUP2 JUMP JUMPDEST PUSH1 0x0 DUP1 PUSH1 0x1 PUSH1 0x0 DUP5 PUSH20 0xFFFFFFFFFFFFFFFFFFFFFFFFFFFFFFFFFFFFFFFF AND PUSH20 0xFFFFFFFFFFFFFFFFFFFFFFFFFFFFFFFFFFFFFFFF AND DUP2 MSTORE PUSH1 0x20 ADD SWAP1 DUP2 MSTORE PUSH1 0x20 ADD PUSH1 0x0 KECCAK256 PUSH1 0x40 MLOAD DUP1 PUSH1 0x80 ADD PUSH1 0x40 MSTORE SWAP1 DUP2 PUSH1 0x0 DUP3 ADD SLOAD DUP2 MSTORE PUSH1 0x20 ADD PUSH1 0x1 DUP3 ADD SLOAD DUP2 MSTORE PUSH1 0x20 ADD PUSH1 0x2 DUP3 ADD PUSH1 0x0 SWAP1 SLOAD SWAP1 PUSH2 0x100 EXP SWAP1 DIV PUSH1 0xFF AND PUSH1 0x5 DUP2 GT ISZERO PUSH2 0x3B9 JUMPI PUSH2 0x3B8 PUSH2 0x142C JUMP JUMPDEST JUMPDEST PUSH1 0x5 DUP2 GT ISZERO PUSH2 0x3CB JUMPI PUSH2 0x3CA PUSH2 0x142C JUMP JUMPDEST JUMPDEST DUP2 MSTORE PUSH1 0x20 ADD PUSH1 0x2 DUP3 ADD PUSH1 0x1 SWAP1 SLOAD SWAP1 PUSH2 0x100 EXP SWAP1 DIV PUSH1 0xFF AND ISZERO ISZERO ISZERO ISZERO DUP2 MSTORE POP POP SWAP1 POP DUP1 PUSH1 0x60 ADD MLOAD PUSH2 0x3FF JUMPI PUSH1 0x0 SWAP2 POP POP PUSH2 0x456 JUMP JUMPDEST PUSH1 0x0 PUSH32 0x0 DUP3 PUSH1 0x20 ADD MLOAD PUSH2 0x431 SWAP2 SWAP1 PUSH2 0x16AA JUMP JUMPDEST SWAP1 POP DUP1 TIMESTAMP LT PUSH2 0x445 JUMPI PUSH1 0x0 SWAP3 POP POP POP PUSH2 0x456 JUMP JUMPDEST TIMESTAMP DUP2 PUSH2 0x451 SWAP2 SWAP1 PUSH2 0x16DE JUMP JUMPDEST SWAP3 POP POP POP JUMPDEST SWAP2 SWAP1 POP JUMP JUMPDEST PUSH10 0x65A4DA25D3016C00000 DUP2 JUMP JUMPDEST PUSH1 0x1 PUSH1 0x20 MSTORE DUP1 PUSH1 0x0 MSTORE PUSH1 0x40 PUSH1 0x0 KECCAK256 PUSH1 0x0 SWAP2 POP SWAP1 POP DUP1 PUSH1 0x0 ADD SLOAD SWAP1 DUP1 PUSH1 0x1 ADD SLOAD SWAP1 DUP1 PUSH1 0x2 ADD PUSH1 0x0 SWAP1 SLOAD SWAP1 PUSH2 0x100 EXP SWAP1 DIV PUSH1 0xFF AND SWAP1 DUP1 PUSH1 0x2 ADD PUSH1 0x1 SWAP1 SLOAD SWAP1 PUSH2 0x100 EXP SWAP1 DIV PUSH1 0xFF AND SWAP1 POP DUP5 JUMP JUMPDEST PUSH9 0x878678326EAC900000 DUP2 JUMP JUMPDEST PUSH2 0x4C8 PUSH2 0xC61 JUMP JUMPDEST PUSH1 0x0 DUP2 SUB PUSH2 0x502 JUMPI PUSH1 0x40 MLOAD PUSH32 0xF55C854200000000000000000000000000000000000000000000000000000000 DUP2 MSTORE PUSH1 0x4 ADD PUSH1 0x40 MLOAD DUP1 SWAP2 SUB SWAP1 REVERT JUMPDEST PUSH1 0x0 PUSH1 0x1 PUSH1 0x0 CALLER PUSH20 0xFFFFFFFFFFFFFFFFFFFFFFFFFFFFFFFFFFFFFFFF AND PUSH20 0xFFFFFFFFFFFFFFFFFFFFFFFFFFFFFFFFFFFFFFFF AND DUP2 MSTORE PUSH1 0x20 ADD SWAP1 DUP2 MSTORE PUSH1 0x20 ADD PUSH1 0x0 KECCAK256 PUSH1 0x40 MLOAD DUP1 PUSH1 0x80 ADD PUSH1 0x40 MSTORE SWAP1 DUP2 PUSH1 0x0 DUP3 ADD SLOAD DUP2 MSTORE PUSH1 0x20 ADD PUSH1 0x1 DUP3 ADD SLOAD DUP2 MSTORE PUSH1 0x20 ADD PUSH1 0x2 DUP3 ADD PUSH1 0x0 SWAP1 SLOAD SWAP1 PUSH2 0x100 EXP SWAP1 DIV PUSH1 0xFF AND PUSH1 0x5 DUP2 GT ISZERO PUSH2 0x587 JUMPI PUSH2 0x586 PUSH2 0x142C JUMP JUMPDEST JUMPDEST PUSH1 0x5 DUP2 GT ISZERO PUSH2 0x599 JUMPI PUSH2 0x598 PUSH2 0x142C JUMP JUMPDEST JUMPDEST DUP2 MSTORE PUSH1 0x20 ADD PUSH1 0x2 DUP3 ADD PUSH1 0x1 SWAP1 SLOAD SWAP1 PUSH2 0x100 EXP SWAP1 DIV PUSH1 0xFF AND ISZERO ISZERO ISZERO ISZERO DUP2 MSTORE POP POP SWAP1 POP DUP1 PUSH1 0x60 ADD MLOAD ISZERO PUSH2 0x5D2 JUMPI PUSH2 0x5CD DUP3 PUSH2 0xCA7 JUMP JUMPDEST PUSH2 0x5DC JUMP JUMPDEST PUSH2 0x5DB DUP3 PUSH2 0xEB5 JUMP JUMPDEST JUMPDEST POP PUSH2 0x5E5 PUSH2 0x10B5 JUMP JUMPDEST POP JUMP JUMPDEST PUSH1 0x0 DUP1 PUSH1 0x0 DUP1 PUSH1 0x0 PUSH1 0x1 PUSH1 0x0 DUP8 PUSH20 0xFFFFFFFFFFFFFFFFFFFFFFFFFFFFFFFFFFFFFFFF AND PUSH20 0xFFFFFFFFFFFFFFFFFFFFFFFFFFFFFFFFFFFFFFFF AND DUP2 MSTORE PUSH1 0x20 ADD SWAP1 DUP2 MSTORE PUSH1 0x20 ADD PUSH1 0x0 KECCAK256 PUSH1 0x40 MLOAD DUP1 PUSH1 0x80 ADD PUSH1 0x40 MSTORE SWAP1 DUP2 PUSH1 0x0 DUP3 ADD SLOAD DUP2 MSTORE PUSH1 0x20 ADD PUSH1 0x1 DUP3 ADD SLOAD DUP2 MSTORE PUSH1 0x20 ADD PUSH1 0x2 DUP3 ADD PUSH1 0x0 SWAP1 SLOAD SWAP1 PUSH2 0x100 EXP SWAP1 DIV PUSH1 0xFF AND PUSH1 0x5 DUP2 GT ISZERO PUSH2 0x673 JUMPI PUSH2 0x672 PUSH2 0x142C JUMP JUMPDEST JUMPDEST PUSH1 0x5 DUP2 GT ISZERO PUSH2 0x685 JUMPI PUSH2 0x684 PUSH2 0x142C JUMP JUMPDEST JUMPDEST DUP2 MSTORE PUSH1 0x20 ADD PUSH1 0x2 DUP3 ADD PUSH1 0x1 SWAP1 SLOAD SWAP1 PUSH2 0x100 EXP SWAP1 DIV PUSH1 0xFF AND ISZERO ISZERO ISZERO ISZERO DUP2 MSTORE POP POP SWAP1 POP DUP1 PUSH1 0x60 ADD MLOAD PUSH2 0x6C3 JUMPI PUSH1 0x0 DUP1 PUSH1 0x0 DUP1 SWAP5 POP SWAP5 POP SWAP5 POP SWAP5 POP POP PUSH2 0x70E JUMP JUMPDEST PUSH32 0x0 DUP2 PUSH1 0x20 ADD MLOAD PUSH2 0x6F3 SWAP2 SWAP1 PUSH2 0x16AA JUMP JUMPDEST SWAP4 POP DUP4 TIMESTAMP LT ISZERO SWAP2 POP DUP1 PUSH1 0x0 ADD MLOAD DUP5 DUP3 PUSH1 0x40 ADD MLOAD SWAP5 POP SWAP5 POP SWAP5 POP POP JUMPDEST SWAP2 SWAP4 POP SWAP2 SWAP4 JUMP JUMPDEST PUSH9 0x1B1AE4D6E2EF500000 DUP2 JUMP JUMPDEST PUSH1 0x0 PUSH1 0x1 PUSH1 0x0 DUP4 PUSH20 0xFFFFFFFFFFFFFFFFFFFFFFFFFFFFFFFFFFFFFFFF AND PUSH20 0xFFFFFFFFFFFFFFFFFFFFFFFFFFFFFFFFFFFFFFFF AND DUP2 MSTORE PUSH1 0x20 ADD SWAP1 DUP2 MSTORE PUSH1 0x20 ADD PUSH1 0x0 KECCAK256 PUSH1 0x2 ADD PUSH1 0x1 SWAP1 SLOAD SWAP1 PUSH2 0x100 EXP SWAP1 DIV PUSH1 0xFF AND SWAP1 POP SWAP2 SWAP1 POP JUMP JUMPDEST PUSH10 0x10F0CF064DD59200000 DUP2 JUMP JUMPDEST PUSH1 0x60 PUSH1 0x5 DUP1 DUP2 GT ISZERO PUSH2 0x79E JUMPI PUSH2 0x79D PUSH2 0x142C JUMP JUMPDEST JUMPDEST DUP3 PUSH1 0x5 DUP2 GT ISZERO PUSH2 0x7B1 JUMPI PUSH2 0x7B0 PUSH2 0x142C JUMP JUMPDEST JUMPDEST SUB PUSH2 0x7F3 JUMPI PUSH1 0x40 MLOAD DUP1 PUSH1 0x40 ADD PUSH1 0x40 MSTORE DUP1 PUSH1 0x7 DUP2 MSTORE PUSH1 0x20 ADD PUSH32 0x4469616D6F6E6400000000000000000000000000000000000000000000000000 DUP2 MSTORE POP SWAP1 POP PUSH2 0x9D0 JUMP JUMPDEST PUSH1 0x4 PUSH1 0x5 DUP2 GT ISZERO PUSH2 0x807 JUMPI PUSH2 0x806 PUSH2 0x142C JUMP JUMPDEST JUMPDEST DUP3 PUSH1 0x5 DUP2 GT ISZERO PUSH2 0x81A JUMPI PUSH2 0x819 PUSH2 0x142C JUMP JUMPDEST JUMPDEST SUB PUSH2 0x85C JUMPI PUSH1 0x40 MLOAD DUP1 PUSH1 0x40 ADD PUSH1 0x40 MSTORE DUP1 PUSH1 0x4 DUP2 MSTORE PUSH1 0x20 ADD PUSH32 0x476F6C6400000000000000000000000000000000000000000000000000000000 DUP2 MSTORE POP SWAP1 POP PUSH2 0x9D0 JUMP JUMPDEST PUSH1 0x3 PUSH1 0x5 DUP2 GT ISZERO PUSH2 0x870 JUMPI PUSH2 0x86F PUSH2 0x142C JUMP JUMPDEST JUMPDEST DUP3 PUSH1 0x5 DUP2 GT ISZERO PUSH2 0x883 JUMPI PUSH2 0x882 PUSH2 0x142C JUMP JUMPDEST JUMPDEST SUB PUSH2 0x8C5 JUMPI PUSH1 0x40 MLOAD DUP1 PUSH1 0x40 ADD PUSH1 0x40 MSTORE DUP1 PUSH1 0x6 DUP2 MSTORE PUSH1 0x20 ADD PUSH32 0x53696C7665720000000000000000000000000000000000000000000000000000 DUP2 MSTORE POP SWAP1 POP PUSH2 0x9D0 JUMP JUMPDEST PUSH1 0x2 PUSH1 0x5 DUP2 GT ISZERO PUSH2 0x8D9 JUMPI PUSH2 0x8D8 PUSH2 0x142C JUMP JUMPDEST JUMPDEST DUP3 PUSH1 0x5 DUP2 GT ISZERO PUSH2 0x8EC JUMPI PUSH2 0x8EB PUSH2 0x142C JUMP JUMPDEST JUMPDEST SUB PUSH2 0x92E JUMPI PUSH1 0x40 MLOAD DUP1 PUSH1 0x40 ADD PUSH1 0x40 MSTORE DUP1 PUSH1 0x6 DUP2 MSTORE PUSH1 0x20 ADD PUSH32 0x42726F6E7A650000000000000000000000000000000000000000000000000000 DUP2 MSTORE POP SWAP1 POP PUSH2 0x9D0 JUMP JUMPDEST PUSH1 0x1 PUSH1 0x5 DUP2 GT ISZERO PUSH2 0x942 JUMPI PUSH2 0x941 PUSH2 0x142C JUMP JUMPDEST JUMPDEST DUP3 PUSH1 0x5 DUP2 GT ISZERO PUSH2 0x955 JUMPI PUSH2 0x954 PUSH2 0x142C JUMP JUMPDEST JUMPDEST SUB PUSH2 0x997 JUMPI PUSH1 0x40 MLOAD DUP1 PUSH1 0x40 ADD PUSH1 0x40 MSTORE DUP1 PUSH1 0x5 DUP2 MSTORE PUSH1 0x20 ADD PUSH32 0x4261736963000000000000000000000000000000000000000000000000000000 DUP2 MSTORE POP SWAP1 POP PUSH2 0x9D0 JUMP JUMPDEST PUSH1 0x40 MLOAD DUP1 PUSH1 0x40 ADD PUSH1 0x40 MSTORE DUP1 PUSH1 0x4 DUP2 MSTORE PUSH1 0x20 ADD PUSH32 0x4E6F6E6500000000000000000000000000000000000000000000000000000000 DUP2 MSTORE POP SWAP1 POP JUMPDEST SWAP2 SWAP1 POP JUMP JUMPDEST PUSH2 0x9DD PUSH2 0xC61 JUMP JUMPDEST PUSH1 0x0 PUSH1 0x1 PUSH1 0x0 CALLER PUSH20 0xFFFFFFFFFFFFFFFFFFFFFFFFFFFFFFFFFFFFFFFF AND PUSH20 0xFFFFFFFFFFFFFFFFFFFFFFFFFFFFFFFFFFFFFFFF AND DUP2 MSTORE PUSH1 0x20 ADD SWAP1 DUP2 MSTORE PUSH1 0x20 ADD PUSH1 0x0 KECCAK256 PUSH1 0x40 MLOAD DUP1 PUSH1 0x80 ADD PUSH1 0x40 MSTORE SWAP1 DUP2 PUSH1 0x0 DUP3 ADD SLOAD DUP2 MSTORE PUSH1 0x20 ADD PUSH1 0x1 DUP3 ADD SLOAD DUP2 MSTORE PUSH1 0x20 ADD PUSH1 0x2 DUP3 ADD PUSH1 0x0 SWAP1 SLOAD SWAP1 PUSH2 0x100 EXP SWAP1 DIV PUSH1 0xFF AND PUSH1 0x5 DUP2 GT ISZERO PUSH2 0xA62 JUMPI PUSH2 0xA61 PUSH2 0x142C JUMP JUMPDEST JUMPDEST PUSH1 0x5 DUP2 GT ISZERO PUSH2 0xA74 JUMPI PUSH2 0xA73 PUSH2 0x142C JUMP JUMPDEST JUMPDEST DUP2 MSTORE PUSH1 0x20 ADD PUSH1 0x2 DUP3 ADD PUSH1 0x1 SWAP1 SLOAD SWAP1 PUSH2 0x100 EXP SWAP1 DIV PUSH1 0xFF AND ISZERO ISZERO ISZERO ISZERO DUP2 MSTORE POP POP SWAP1 POP DUP1 PUSH1 0x60 ADD MLOAD PUSH2 0xAD0 JUMPI PUSH1 0x40 MLOAD PUSH32 0x9F9517FA00000000000000000000000000000000000000000000000000000000 DUP2 MSTORE PUSH1 0x4 ADD PUSH1 0x40 MLOAD DUP1 SWAP2 SUB SWAP1 REVERT JUMPDEST PUSH32 0x0 DUP2 PUSH1 0x20 ADD MLOAD PUSH2 0xB00 SWAP2 SWAP1 PUSH2 0x16AA JUMP JUMPDEST TIMESTAMP LT ISZERO PUSH2 0xB39 JUMPI PUSH1 0x40 MLOAD PUSH32 0xF594DA3400000000000000000000000000000000000000000000000000000000 DUP2 MSTORE PUSH1 0x4 ADD PUSH1 0x40 MLOAD DUP1 SWAP2 SUB SWAP1 REVERT JUMPDEST PUSH1 0x0 DUP2 PUSH1 0x0 ADD MLOAD SWAP1 POP PUSH1 0x1 PUSH1 0x0 CALLER PUSH20 0xFFFFFFFFFFFFFFFFFFFFFFFFFFFFFFFFFFFFFFFF AND PUSH20 0xFFFFFFFFFFFFFFFFFFFFFFFFFFFFFFFFFFFFFFFF AND DUP2 MSTORE PUSH1 0x20 ADD SWAP1 DUP2 MSTORE PUSH1 0x20 ADD PUSH1 0x0 KECCAK256 PUSH1 0x0 DUP1 DUP3 ADD PUSH1 0x0 SWAP1 SSTORE PUSH1 0x1 DUP3 ADD PUSH1 0x0 SWAP1 SSTORE PUSH1 0x2 DUP3 ADD PUSH1 0x0 PUSH2 0x100 EXP DUP2 SLOAD SWAP1 PUSH1 0xFF MUL NOT AND SWAP1 SSTORE PUSH1 0x2 DUP3 ADD PUSH1 0x1 PUSH2 0x100 EXP DUP2 SLOAD SWAP1 PUSH1 0xFF MUL NOT AND SWAP1 SSTORE POP POP PUSH2 0xC07 CALLER DUP3 PUSH32 0x0 PUSH20 0xFFFFFFFFFFFFFFFFFFFFFFFFFFFFFFFFFFFFFFFF AND PUSH2 0x10BF SWAP1 SWAP3 SWAP2 SWAP1 PUSH4 0xFFFFFFFF AND JUMP JUMPDEST CALLER PUSH20 0xFFFFFFFFFFFFFFFFFFFFFFFFFFFFFFFFFFFFFFFF AND PUSH32 0xE7B379C6C1FA169E9079C25E9143B127637EEF8EC8C9D5C06DDB4AB3E1195888 DUP3 PUSH1 0x40 MLOAD PUSH2 0xC4D SWAP2 SWAP1 PUSH2 0x1307 JUMP JUMPDEST PUSH1 0x40 MLOAD DUP1 SWAP2 SUB SWAP1 LOG2 POP POP PUSH2 0xC5F PUSH2 0x10B5 JUMP JUMPDEST JUMP JUMPDEST PUSH1 0x2 PUSH1 0x0 SLOAD SUB PUSH2 0xC9D JUMPI PUSH1 0x40 MLOAD PUSH32 0x3EE5AEB500000000000000000000000000000000000000000000000000000000 DUP2 MSTORE PUSH1 0x4 ADD PUSH1 0x40 MLOAD DUP1 SWAP2 SUB SWAP1 REVERT JUMPDEST PUSH1 0x2 PUSH1 0x0 DUP2 SWAP1 SSTORE POP JUMP JUMPDEST PUSH1 0x0 PUSH1 0x1 PUSH1 0x0 CALLER PUSH20 0xFFFFFFFFFFFFFFFFFFFFFFFFFFFFFFFFFFFFFFFF AND PUSH20 0xFFFFFFFFFFFFFFFFFFFFFFFFFFFFFFFFFFFFFFFF AND DUP2 MSTORE PUSH1 0x20 ADD SWAP1 DUP2 MSTORE PUSH1 0x20 ADD PUSH1 0x0 KECCAK256 SWAP1 POP PUSH2 0xD37 CALLER ADDRESS DUP5 PUSH32 0x0 PUSH20 0xFFFFFFFFFFFFFFFFFFFFFFFFFFFFFFFFFFFFFFFF AND PUSH2 0x113E SWAP1 SWAP4 SWAP3 SWAP2 SWAP1 PUSH4 0xFFFFFFFF AND JUMP JUMPDEST PUSH1 0x0 DUP2 PUSH1 0x2 ADD PUSH1 0x0 SWAP1 SLOAD SWAP1 PUSH2 0x100 EXP SWAP1 DIV PUSH1 0xFF AND SWAP1 POP PUSH1 0x0 DUP4 DUP4 PUSH1 0x0 ADD SLOAD PUSH2 0xD5F SWAP2 SWAP1 PUSH2 0x16AA JUMP JUMPDEST SWAP1 POP PUSH1 0x0 PUSH2 0xD6C DUP3 PUSH2 0x11C0 JUMP JUMPDEST SWAP1 POP DUP2 DUP5 PUSH1 0x0 ADD DUP2 SWAP1 SSTORE POP TIMESTAMP DUP5 PUSH1 0x1 ADD DUP2 SWAP1 SSTORE POP DUP1 DUP5 PUSH1 0x2 ADD PUSH1 0x0 PUSH2 0x100 EXP DUP2 SLOAD DUP2 PUSH1 0xFF MUL NOT AND SWAP1 DUP4 PUSH1 0x5 DUP2 GT ISZERO PUSH2 0xDA7 JUMPI PUSH2 0xDA6 PUSH2 0x142C JUMP JUMPDEST JUMPDEST MUL OR SWAP1 SSTORE POP PUSH1 0x0 PUSH32 0x0 TIMESTAMP PUSH2 0xDDA SWAP2 SWAP1 PUSH2 0x16AA JUMP JUMPDEST SWAP1 POP CALLER PUSH20 0xFFFFFFFFFFFFFFFFFFFFFFFFFFFFFFFFFFFFFFFF AND PUSH32 0x17F7BD2ED6E916C497152665E2C0D342688AB50D5F657723A46AE8C418EA61DA DUP8 DUP7 DUP6 DUP6 PUSH1 0x40 MLOAD PUSH2 0xE28 SWAP5 SWAP4 SWAP3 SWAP2 SWAP1 PUSH2 0x1712 JUMP JUMPDEST PUSH1 0x40 MLOAD DUP1 SWAP2 SUB SWAP1 LOG2 DUP4 PUSH1 0x5 DUP2 GT ISZERO PUSH2 0xE43 JUMPI PUSH2 0xE42 PUSH2 0x142C JUMP JUMPDEST JUMPDEST DUP3 PUSH1 0x5 DUP2 GT ISZERO PUSH2 0xE56 JUMPI PUSH2 0xE55 PUSH2 0x142C JUMP JUMPDEST JUMPDEST GT ISZERO PUSH2 0xEAD JUMPI CALLER PUSH20 0xFFFFFFFFFFFFFFFFFFFFFFFFFFFFFFFFFFFFFFFF AND PUSH32 0xCBBF00B5F55F1857F9362F521999F79036413E420D1B236D6BC143AF30DB731A DUP6 DUP5 PUSH1 0x40 MLOAD PUSH2 0xEA4 SWAP3 SWAP2 SWAP1 PUSH2 0x1757 JUMP JUMPDEST PUSH1 0x40 MLOAD DUP1 SWAP2 SUB SWAP1 LOG2 JUMPDEST POP POP POP POP POP POP JUMP JUMPDEST PUSH9 0x1B1AE4D6E2EF500000 DUP2 LT ISZERO PUSH2 0xEF8 JUMPI PUSH1 0x40 MLOAD PUSH32 0xD6D3239C00000000000000000000000000000000000000000000000000000000 DUP2 MSTORE PUSH1 0x4 ADD PUSH1 0x40 MLOAD DUP1 SWAP2 SUB SWAP1 REVERT JUMPDEST PUSH2 0xF45 CALLER ADDRESS DUP4 PUSH32 0x0 PUSH20 0xFFFFFFFFFFFFFFFFFFFFFFFFFFFFFFFFFFFFFFFF AND PUSH2 0x113E SWAP1 SWAP4 SWAP3 SWAP2 SWAP1 PUSH4 0xFFFFFFFF AND JUMP JUMPDEST PUSH1 0x0 PUSH2 0xF50 DUP3 PUSH2 0x11C0 JUMP JUMPDEST SWAP1 POP PUSH1 0x0 PUSH32 0x0 TIMESTAMP PUSH2 0xF80 SWAP2 SWAP1 PUSH2 0x16AA JUMP JUMPDEST SWAP1 POP PUSH1 0x40 MLOAD DUP1 PUSH1 0x80 ADD PUSH1 0x40 MSTORE DUP1 DUP5 DUP2 MSTORE PUSH1 0x20 ADD TIMESTAMP DUP2 MSTORE PUSH1 0x20 ADD DUP4 PUSH1 0x5 DUP2 GT ISZERO PUSH2 0xFAC JUMPI PUSH2 0xFAB PUSH2 0x142C JUMP JUMPDEST JUMPDEST DUP2 MSTORE PUSH1 0x20 ADD PUSH1 0x1 ISZERO ISZERO DUP2 MSTORE POP PUSH1 0x1 PUSH1 0x0 CALLER PUSH20 0xFFFFFFFFFFFFFFFFFFFFFFFFFFFFFFFFFFFFFFFF AND PUSH20 0xFFFFFFFFFFFFFFFFFFFFFFFFFFFFFFFFFFFFFFFF AND DUP2 MSTORE PUSH1 0x20 ADD SWAP1 DUP2 MSTORE PUSH1 0x20 ADD PUSH1 0x0 KECCAK256 PUSH1 0x0 DUP3 ADD MLOAD DUP2 PUSH1 0x0 ADD SSTORE PUSH1 0x20 DUP3 ADD MLOAD DUP2 PUSH1 0x1 ADD SSTORE PUSH1 0x40 DUP3 ADD MLOAD DUP2 PUSH1 0x2 ADD PUSH1 0x0 PUSH2 0x100 EXP DUP2 SLOAD DUP2 PUSH1 0xFF MUL NOT AND SWAP1 DUP4 PUSH1 0x5 DUP2 GT ISZERO PUSH2 0x1036 JUMPI PUSH2 0x1035 PUSH2 0x142C JUMP JUMPDEST JUMPDEST MUL OR SWAP1 SSTORE POP PUSH1 0x60 DUP3 ADD MLOAD DUP2 PUSH1 0x2 ADD PUSH1 0x1 PUSH2 0x100 EXP DUP2 SLOAD DUP2 PUSH1 0xFF MUL NOT AND SWAP1 DUP4 ISZERO ISZERO MUL OR SWAP1 SSTORE POP SWAP1 POP POP CALLER PUSH20 0xFFFFFFFFFFFFFFFFFFFFFFFFFFFFFFFFFFFFFFFF AND PUSH32 0x2783FA8AFFC4DBBA2AC9978C432CE95AB38E9C777E2E6CCE5B917801B0641421 DUP5 DUP5 DUP5 PUSH1 0x40 MLOAD PUSH2 0x10A8 SWAP4 SWAP3 SWAP2 SWAP1 PUSH2 0x1780 JUMP JUMPDEST PUSH1 0x40 MLOAD DUP1 SWAP2 SUB SWAP1 LOG2 POP POP POP JUMP JUMPDEST PUSH1 0x1 PUSH1 0x0 DUP2 SWAP1 SSTORE POP JUMP JUMPDEST PUSH2 0x1139 DUP4 DUP5 PUSH20 0xFFFFFFFFFFFFFFFFFFFFFFFFFFFFFFFFFFFFFFFF AND PUSH4 0xA9059CBB DUP6 DUP6 PUSH1 0x40 MLOAD PUSH1 0x24 ADD PUSH2 0x10F2 SWAP3 SWAP2 SWAP1 PUSH2 0x17C6 JUMP JUMPDEST PUSH1 0x40 MLOAD PUSH1 0x20 DUP2 DUP4 SUB SUB DUP2 MSTORE SWAP1 PUSH1 0x40 MSTORE SWAP2 POP PUSH1 0xE0 SHL PUSH1 0x20 DUP3 ADD DUP1 MLOAD PUSH28 0xFFFFFFFFFFFFFFFFFFFFFFFFFFFFFFFFFFFFFFFFFFFFFFFFFFFFFFFF DUP4 DUP2 DUP4 AND OR DUP4 MSTORE POP POP POP POP PUSH2 0x124C JUMP JUMPDEST POP POP POP JUMP JUMPDEST PUSH2 0x11BA DUP5 DUP6 PUSH20 0xFFFFFFFFFFFFFFFFFFFFFFFFFFFFFFFFFFFFFFFF AND PUSH4 0x23B872DD DUP7 DUP7 DUP7 PUSH1 0x40 MLOAD PUSH1 0x24 ADD PUSH2 0x1173 SWAP4 SWAP3 SWAP2 SWAP1 PUSH2 0x17EF JUMP JUMPDEST PUSH1 0x40 MLOAD PUSH1 0x20 DUP2 DUP4 SUB SUB DUP2 MSTORE SWAP1 PUSH1 0x40 MSTORE SWAP2 POP PUSH1 0xE0 SHL PUSH1 0x20 DUP3 ADD DUP1 MLOAD PUSH28 0xFFFFFFFFFFFFFFFFFFFFFFFFFFFFFFFFFFFFFFFFFFFFFFFFFFFFFFFF DUP4 DUP2 DUP4 AND OR DUP4 MSTORE POP POP POP POP PUSH2 0x124C JUMP JUMPDEST POP POP POP POP JUMP JUMPDEST PUSH1 0x0 PUSH10 0x1A784379D99DB4200000 DUP3 LT PUSH2 0x11DC JUMPI PUSH1 0x5 SWAP1 POP PUSH2 0x1247 JUMP JUMPDEST PUSH10 0x65A4DA25D3016C00000 DUP3 LT PUSH2 0x11F6 JUMPI PUSH1 0x4 SWAP1 POP PUSH2 0x1247 JUMP JUMPDEST PUSH10 0x10F0CF064DD59200000 DUP3 LT PUSH2 0x1210 JUMPI PUSH1 0x3 SWAP1 POP PUSH2 0x1247 JUMP JUMPDEST PUSH9 0x878678326EAC900000 DUP3 LT PUSH2 0x1229 JUMPI PUSH1 0x2 SWAP1 POP PUSH2 0x1247 JUMP JUMPDEST PUSH9 0x1B1AE4D6E2EF500000 DUP3 LT PUSH2 0x1242 JUMPI PUSH1 0x1 SWAP1 POP PUSH2 0x1247 JUMP JUMPDEST PUSH1 0x0 SWAP1 POP JUMPDEST SWAP2 SWAP1 POP JUMP JUMPDEST PUSH1 0x0 DUP1 PUSH1 0x20 PUSH1 0x0 DUP5 MLOAD PUSH1 0x20 DUP7 ADD PUSH1 0x0 DUP9 GAS CALL DUP1 PUSH2 0x126F JUMPI PUSH1 0x40 MLOAD RETURNDATASIZE PUSH1 0x0 DUP3 RETURNDATACOPY RETURNDATASIZE DUP2 REVERT JUMPDEST RETURNDATASIZE SWAP3 POP PUSH1 0x0 MLOAD SWAP2 POP POP PUSH1 0x0 DUP3 EQ PUSH2 0x128A JUMPI PUSH1 0x1 DUP2 EQ ISZERO PUSH2 0x12A6 JUMP JUMPDEST PUSH1 0x0 DUP5 PUSH20 0xFFFFFFFFFFFFFFFFFFFFFFFFFFFFFFFFFFFFFFFF AND EXTCODESIZE EQ JUMPDEST ISZERO PUSH2 0x12E8 JUMPI DUP4 PUSH1 0x40 MLOAD PUSH32 0x5274AFE700000000000000000000000000000000000000000000000000000000 DUP2 MSTORE PUSH1 0x4 ADD PUSH2 0x12DF SWAP2 SWAP1 PUSH2 0x1826 JUMP JUMPDEST PUSH1 0x40 MLOAD DUP1 SWAP2 SUB SWAP1 REVERT JUMPDEST POP POP POP POP JUMP JUMPDEST PUSH1 0x0 DUP2 SWAP1 POP SWAP2 SWAP1 POP JUMP JUMPDEST PUSH2 0x1301 DUP2 PUSH2 0x12EE JUMP JUMPDEST DUP3 MSTORE POP POP JUMP JUMPDEST PUSH1 0x0 PUSH1 0x20 DUP3 ADD SWAP1 POP PUSH2 0x131C PUSH1 0x0 DUP4 ADD DUP5 PUSH2 0x12F8 JUMP JUMPDEST SWAP3 SWAP2 POP POP JUMP JUMPDEST PUSH1 0x0 PUSH20 0xFFFFFFFFFFFFFFFFFFFFFFFFFFFFFFFFFFFFFFFF DUP3 AND SWAP1 POP SWAP2 SWAP1 POP JUMP JUMPDEST PUSH1 0x0 DUP2 SWAP1 POP SWAP2 SWAP1 POP JUMP JUMPDEST PUSH1 0x0 PUSH2 0x1367 PUSH2 0x1362 PUSH2 0x135D DUP5 PUSH2 0x1322 JUMP JUMPDEST PUSH2 0x1342 JUMP JUMPDEST PUSH2 0x1322 JUMP JUMPDEST SWAP1 POP SWAP2 SWAP1 POP JUMP JUMPDEST PUSH1 0x0 PUSH2 0x1379 DUP3 PUSH2 0x134C JUMP JUMPDEST SWAP1 POP SWAP2 SWAP1 POP JUMP JUMPDEST PUSH1 0x0 PUSH2 0x138B DUP3 PUSH2 0x136E JUMP JUMPDEST SWAP1 POP SWAP2 SWAP1 POP JUMP JUMPDEST PUSH2 0x139B DUP2 PUSH2 0x1380 JUMP JUMPDEST DUP3 MSTORE POP POP JUMP JUMPDEST PUSH1 0x0 PUSH1 0x20 DUP3 ADD SWAP1 POP PUSH2 0x13B6 PUSH1 0x0 DUP4 ADD DUP5 PUSH2 0x1392 JUMP JUMPDEST SWAP3 SWAP2 POP POP JUMP JUMPDEST PUSH1 0x0 DUP1 REVERT JUMPDEST PUSH1 0x0 PUSH2 0x13CC DUP3 PUSH2 0x1322 JUMP JUMPDEST SWAP1 POP SWAP2 SWAP1 POP JUMP JUMPDEST PUSH2 0x13DC DUP2 PUSH2 0x13C1 JUMP JUMPDEST DUP2 EQ PUSH2 0x13E7 JUMPI PUSH1 0x0 DUP1 REVERT JUMPDEST POP JUMP JUMPDEST PUSH1 0x0 DUP2 CALLDATALOAD SWAP1 POP PUSH2 0x13F9 DUP2 PUSH2 0x13D3 JUMP JUMPDEST SWAP3 SWAP2 POP POP JUMP JUMPDEST PUSH1 0x0 PUSH1 0x20 DUP3 DUP5 SUB SLT ISZERO PUSH2 0x1415 JUMPI PUSH2 0x1414 PUSH2 0x13BC JUMP JUMPDEST JUMPDEST PUSH1 0x0 PUSH2 0x1423 DUP5 DUP3 DUP6 ADD PUSH2 0x13EA JUMP JUMPDEST SWAP2 POP POP SWAP3 SWAP2 POP POP JUMP JUMPDEST PUSH32 0x4E487B7100000000000000000000000000000000000000000000000000000000 PUSH1 0x0 MSTORE PUSH1 0x21 PUSH1 0x4 MSTORE PUSH1 0x24 PUSH1 0x0 REVERT JUMPDEST PUSH1 0x6 DUP2 LT PUSH2 0x146C JUMPI PUSH2 0x146B PUSH2 0x142C JUMP JUMPDEST JUMPDEST POP JUMP JUMPDEST PUSH1 0x0 DUP2 SWAP1 POP PUSH2 0x147D DUP3 PUSH2 0x145B JUMP JUMPDEST SWAP2 SWAP1 POP JUMP JUMPDEST PUSH1 0x0 PUSH2 0x148D DUP3 PUSH2 0x146F JUMP JUMPDEST SWAP1 POP SWAP2 SWAP1 POP JUMP JUMPDEST PUSH2 0x149D DUP2 PUSH2 0x1482 JUMP JUMPDEST DUP3 MSTORE POP POP JUMP JUMPDEST PUSH1 0x0 DUP2 ISZERO ISZERO SWAP1 POP SWAP2 SWAP1 POP JUMP JUMPDEST PUSH2 0x14B8 DUP2 PUSH2 0x14A3 JUMP JUMPDEST DUP3 MSTORE POP POP JUMP JUMPDEST PUSH1 0x0 PUSH1 0x80 DUP3 ADD SWAP1 POP PUSH2 0x14D3 PUSH1 0x0 DUP4 ADD DUP8 PUSH2 0x12F8 JUMP JUMPDEST PUSH2 0x14E0 PUSH1 0x20 DUP4 ADD DUP7 PUSH2 0x12F8 JUMP JUMPDEST PUSH2 0x14ED PUSH1 0x40 DUP4 ADD DUP6 PUSH2 0x1494 JUMP JUMPDEST PUSH2 0x14FA PUSH1 0x60 DUP4 ADD DUP5 PUSH2 0x14AF JUMP JUMPDEST SWAP6 SWAP5 POP POP POP POP POP JUMP JUMPDEST PUSH2 0x150C DUP2 PUSH2 0x12EE JUMP JUMPDEST DUP2 EQ PUSH2 0x1517 JUMPI PUSH1 0x0 DUP1 REVERT JUMPDEST POP JUMP JUMPDEST PUSH1 0x0 DUP2 CALLDATALOAD SWAP1 POP PUSH2 0x1529 DUP2 PUSH2 0x1503 JUMP JUMPDEST SWAP3 SWAP2 POP POP JUMP JUMPDEST PUSH1 0x0 PUSH1 0x20 DUP3 DUP5 SUB SLT ISZERO PUSH2 0x1545 JUMPI PUSH2 0x1544 PUSH2 0x13BC JUMP JUMPDEST JUMPDEST PUSH1 0x0 PUSH2 0x1553 DUP5 DUP3 DUP6 ADD PUSH2 0x151A JUMP JUMPDEST SWAP2 POP POP SWAP3 SWAP2 POP POP JUMP JUMPDEST PUSH1 0x0 PUSH1 0x20 DUP3 ADD SWAP1 POP PUSH2 0x1571 PUSH1 0x0 DUP4 ADD DUP5 PUSH2 0x14AF JUMP JUMPDEST SWAP3 SWAP2 POP POP JUMP JUMPDEST PUSH1 0x6 DUP2 LT PUSH2 0x1584 JUMPI PUSH1 0x0 DUP1 REVERT JUMPDEST POP JUMP JUMPDEST PUSH1 0x0 DUP2 CALLDATALOAD SWAP1 POP PUSH2 0x1596 DUP2 PUSH2 0x1577 JUMP JUMPDEST SWAP3 SWAP2 POP POP JUMP JUMPDEST PUSH1 0x0 PUSH1 0x20 DUP3 DUP5 SUB SLT ISZERO PUSH2 0x15B2 JUMPI PUSH2 0x15B1 PUSH2 0x13BC JUMP JUMPDEST JUMPDEST PUSH1 0x0 PUSH2 0x15C0 DUP5 DUP3 DUP6 ADD PUSH2 0x1587 JUMP JUMPDEST SWAP2 POP POP SWAP3 SWAP2 POP POP JUMP JUMPDEST PUSH1 0x0 DUP2 MLOAD SWAP1 POP SWAP2 SWAP1 POP JUMP JUMPDEST PUSH1 0x0 DUP3 DUP3 MSTORE PUSH1 0x20 DUP3 ADD SWAP1 POP SWAP3 SWAP2 POP POP JUMP JUMPDEST PUSH1 0x0 JUMPDEST DUP4 DUP2 LT ISZERO PUSH2 0x1603 JUMPI DUP1 DUP3 ADD MLOAD DUP2 DUP5 ADD MSTORE PUSH1 0x20 DUP2 ADD SWAP1 POP PUSH2 0x15E8 JUMP JUMPDEST PUSH1 0x0 DUP5 DUP5 ADD MSTORE POP POP POP POP JUMP JUMPDEST PUSH1 0x0 PUSH1 0x1F NOT PUSH1 0x1F DUP4 ADD AND SWAP1 POP SWAP2 SWAP1 POP JUMP JUMPDEST PUSH1 0x0 PUSH2 0x162B DUP3 PUSH2 0x15C9 JUMP JUMPDEST PUSH2 0x1635 DUP2 DUP6 PUSH2 0x15D4 JUMP JUMPDEST SWAP4 POP PUSH2 0x1645 DUP2 DUP6 PUSH1 0x20 DUP7 ADD PUSH2 0x15E5 JUMP JUMPDEST PUSH2 0x164E DUP2 PUSH2 0x160F JUMP JUMPDEST DUP5 ADD SWAP2 POP POP SWAP3 SWAP2 POP POP JUMP JUMPDEST PUSH1 0x0 PUSH1 0x20 DUP3 ADD SWAP1 POP DUP2 DUP2 SUB PUSH1 0x0 DUP4 ADD MSTORE PUSH2 0x1673 DUP2 DUP5 PUSH2 0x1620 JUMP JUMPDEST SWAP1 POP SWAP3 SWAP2 POP POP JUMP JUMPDEST PUSH32 0x4E487B7100000000000000000000000000000000000000000000000000000000 PUSH1 0x0 MSTORE PUSH1 0x11 PUSH1 0x4 MSTORE PUSH1 0x24 PUSH1 0x0 REVERT JUMPDEST PUSH1 0x0 PUSH2 0x16B5 DUP3 PUSH2 0x12EE JUMP JUMPDEST SWAP2 POP PUSH2 0x16C0 DUP4 PUSH2 0x12EE JUMP JUMPDEST SWAP3 POP DUP3 DUP3 ADD SWAP1 POP DUP1 DUP3 GT ISZERO PUSH2 0x16D8 JUMPI PUSH2 0x16D7 PUSH2 0x167B JUMP JUMPDEST JUMPDEST SWAP3 SWAP2 POP POP JUMP JUMPDEST PUSH1 0x0 PUSH2 0x16E9 DUP3 PUSH2 0x12EE JUMP JUMPDEST SWAP2 POP PUSH2 0x16F4 DUP4 PUSH2 0x12EE JUMP JUMPDEST SWAP3 POP DUP3 DUP3 SUB SWAP1 POP DUP2 DUP2 GT ISZERO PUSH2 0x170C JUMPI PUSH2 0x170B PUSH2 0x167B JUMP JUMPDEST JUMPDEST SWAP3 SWAP2 POP POP JUMP JUMPDEST PUSH1 0x0 PUSH1 0x80 DUP3 ADD SWAP1 POP PUSH2 0x1727 PUSH1 0x0 DUP4 ADD DUP8 PUSH2 0x12F8 JUMP JUMPDEST PUSH2 0x1734 PUSH1 0x20 DUP4 ADD DUP7 PUSH2 0x1494 JUMP JUMPDEST PUSH2 0x1741 PUSH1 0x40 DUP4 ADD DUP6 PUSH2 0x1494 JUMP JUMPDEST PUSH2 0x174E PUSH1 0x60 DUP4 ADD DUP5 PUSH2 0x12F8 JUMP JUMPDEST SWAP6 SWAP5 POP POP POP POP POP JUMP JUMPDEST PUSH1 0x0 PUSH1 0x40 DUP3 ADD SWAP1 POP PUSH2 0x176C PUSH1 0x0 DUP4 ADD DUP6 PUSH2 0x1494 JUMP JUMPDEST PUSH2 0x1779 PUSH1 0x20 DUP4 ADD DUP5 PUSH2 0x1494 JUMP JUMPDEST SWAP4 SWAP3 POP POP POP JUMP JUMPDEST PUSH1 0x0 PUSH1 0x60 DUP3 ADD SWAP1 POP PUSH2 0x1795 PUSH1 0x0 DUP4 ADD DUP7 PUSH2 0x12F8 JUMP JUMPDEST PUSH2 0x17A2 PUSH1 0x20 DUP4 ADD DUP6 PUSH2 0x1494 JUMP JUMPDEST PUSH2 0x17AF PUSH1 0x40 DUP4 ADD DUP5 PUSH2 0x12F8 JUMP JUMPDEST SWAP5 SWAP4 POP POP POP POP JUMP JUMPDEST PUSH2 0x17C0 DUP2 PUSH2 0x13C1 JUMP JUMPDEST DUP3 MSTORE POP POP JUMP JUMPDEST PUSH1 0x0 PUSH1 0x40 DUP3 ADD SWAP1 POP PUSH2 0x17DB PUSH1 0x0 DUP4 ADD DUP6 PUSH2 0x17B7 JUMP JUMPDEST PUSH2 0x17E8 PUSH1 0x20 DUP4 ADD DUP5 PUSH2 0x12F8 JUMP JUMPDEST SWAP4 SWAP3 POP POP POP JUMP JUMPDEST PUSH1 0x0 PUSH1 0x60 DUP3 ADD SWAP1 POP PUSH2 0x1804 PUSH1 0x0 DUP4 ADD DUP7 PUSH2 0x17B7 JUMP JUMPDEST PUSH2 0x1811 PUSH1 0x20 DUP4 ADD DUP6 PUSH2 0x17B7 JUMP JUMPDEST PUSH2 0x181E PUSH1 0x40 DUP4 ADD DUP5 PUSH2 0x12F8 JUMP JUMPDEST SWAP5 SWAP4 POP POP POP POP JUMP JUMPDEST PUSH1 0x0 PUSH1 0x20 DUP3 ADD SWAP1 POP PUSH2 0x183B PUSH1 0x0 DUP4 ADD DUP5 PUSH2 0x17B7 JUMP JUMPDEST SWAP3 SWAP2 POP POP JUMP INVALID LOG2 PUSH5 0x6970667358 0x22 SLT KECCAK256 SWAP3 CODECOPY PUSH16 0xC881CA7456FED67DCF763FCA779DE061 JUMPI DUP1 0xAE PUSH5 0xDFDFB54E36 MCOPY SWAP3 0xD5 0xA7 PUSH5 0x736F6C6343 STOP ADDMOD SHR STOP CALLER "
        },
        "methodIdentifiers": {
          "BASIC_THRESHOLD()": "826dc142",
          "BRONZE_THRESHOLD()": "69a2f026",
          "DIAMOND_THRESHOLD()": "0b8df9f1",
          "GOLD_THRESHOLD()": "56973974",
          "SILVER_THRESHOLD()": "c1a0db30",
          "getLockInfo(address)": "7238ccdb",
          "getRemainingLockTime(address)": "47304494",
          "getTierName(uint8)": "e64bd593",
          "hasActiveLock(address)": "a20fa312",
          "lockPeriod()": "3fd8b02f",
          "lockTokens(uint256)": "6e27d889",
          "lockedToken()": "0f45cc81",
          "locks(address)": "5de9a137",
          "unlockTokens()": "f968f493"
        }
      }
    }
  }
}