{
  "_format": "hh-sol-artifact-1",
  "contractName": "TokenLaunchpad",
  "sourceName": "contracts/TokenLaunchpad.sol",
  "abi": [
    {
      "inputs": [
        {
          "internalType": "address",
          "name": "_saleToken",
          "type": "address"
        },
        {
          "internalType": "address",
          "name": "_paymentToken",
          "type": "address"
        },
        {
          "internalType": "uint256",
          "name": "_minPrice",
          "type": "uint256"
        },
        {
          "internalType": "uint256",
          "name": "_maxPrice",
          "type": "uint256"
        },
        {
          "internalType": "uint256",
          "name": "_scaleFactor",
          "type": "uint256"
        },
        {
          "internalType": "uint256",
          "name": "_immediateReleasePercent",
          "type": "uint256"
        },
        {
          "internalType": "uint256",
          "name": "_vestingDuration",
          "type": "uint256"
        }
      ],
      "stateMutability": "nonpayable",
      "type": "constructor"
    },
    {
      "inputs": [],
      "name": "InsufficientTokens",
      "type": "error"
    },
    {
      "inputs": [],
      "name": "InvalidAmount",
      "type": "error"
    },
    {
      "inputs": [],
      "name": "NoTokensToClaim",
      "type": "error"
    },
    {
      "inputs": [
        {
          "internalType": "address",
          "name": "owner",
          "type": "address"
        }
      ],
      "name": "OwnableInvalidOwner",
      "type": "error"
    },
    {
      "inputs": [
        {
          "internalType": "address",
          "name": "account",
          "type": "address"
        }
      ],
      "name": "OwnableUnauthorizedAccount",
      "type": "error"
    },
    {
      "inputs": [],
      "name": "ReentrancyGuardReentrantCall",
      "type": "error"
    },
    {
      "inputs": [
        {
          "internalType": "address",
          "name": "token",
          "type": "address"
        }
      ],
      "name": "SafeERC20FailedOperation",
      "type": "error"
    },
    {
      "inputs": [],
      "name": "SaleAlreadyActive",
      "type": "error"
    },
    {
      "inputs": [],
      "name": "SaleNotActive",
      "type": "error"
    },
    {
      "inputs": [],
      "name": "SaleNotEnded",
      "type": "error"
    },
    {
      "inputs": [],
      "name": "SaleNotInitialized",
      "type": "error"
    },
    {
      "anonymous": false,
      "inputs": [
        {
          "indexed": true,
          "internalType": "address",
          "name": "previousOwner",
          "type": "address"
        },
        {
          "indexed": true,
          "internalType": "address",
          "name": "newOwner",
          "type": "address"
        }
      ],
      "name": "OwnershipTransferred",
      "type": "event"
    },
    {
      "anonymous": false,
      "inputs": [
        {
          "components": [
            {
              "internalType": "uint256",
              "name": "startTime",
              "type": "uint256"
            },
            {
              "internalType": "uint256",
              "name": "endTime",
              "type": "uint256"
            },
            {
              "internalType": "uint256",
              "name": "maxTokenForSale",
              "type": "uint256"
            },
            {
              "internalType": "uint256",
              "name": "tokenSold",
              "type": "uint256"
            },
            {
              "internalType": "uint256",
              "name": "minPrice",
              "type": "uint256"
            },
            {
              "internalType": "uint256",
              "name": "maxPrice",
              "type": "uint256"
            },
            {
              "internalType": "uint256",
              "name": "scaleFactor",
              "type": "uint256"
            }
          ],
          "indexed": false,
          "internalType": "struct TokenLaunchpad.TokenLaunchpadParameter",
          "name": "params",
          "type": "tuple"
        }
      ],
      "name": "SaleInitialized",
      "type": "event"
    },
    {
      "anonymous": false,
      "inputs": [
        {
          "indexed": true,
          "internalType": "address",
          "name": "buyer",
          "type": "address"
        },
        {
          "indexed": false,
          "internalType": "uint256",
          "name": "amount",
          "type": "uint256"
        }
      ],
      "name": "TokensClaimed",
      "type": "event"
    },
    {
      "anonymous": false,
      "inputs": [
        {
          "indexed": false,
          "internalType": "uint256",
          "name": "amount",
          "type": "uint256"
        }
      ],
      "name": "TokensDeposited",
      "type": "event"
    },
    {
      "anonymous": false,
      "inputs": [
        {
          "indexed": true,
          "internalType": "address",
          "name": "buyer",
          "type": "address"
        },
        {
          "indexed": false,
          "internalType": "uint256",
          "name": "tokenAmount",
          "type": "uint256"
        },
        {
          "indexed": false,
          "internalType": "uint256",
          "name": "startPrice",
          "type": "uint256"
        },
        {
          "indexed": false,
          "internalType": "uint256",
          "name": "endPrice",
          "type": "uint256"
        },
        {
          "indexed": false,
          "internalType": "uint256",
          "name": "averagePrice",
          "type": "uint256"
        },
        {
          "indexed": false,
          "internalType": "uint256",
          "name": "usdcAmount",
          "type": "uint256"
        }
      ],
      "name": "TokensPurchased",
      "type": "event"
    },
    {
      "inputs": [],
      "name": "MONTH_IN_SECONDS",
      "outputs": [
        {
          "internalType": "uint256",
          "name": "",
          "type": "uint256"
        }
      ],
      "stateMutability": "view",
      "type": "function"
    },
    {
      "inputs": [],
      "name": "PRICE_PRECISION",
      "outputs": [
        {
          "internalType": "uint256",
          "name": "",
          "type": "uint256"
        }
      ],
      "stateMutability": "view",
      "type": "function"
    },
    {
      "inputs": [],
      "name": "TOKEN_DECIMALS",
      "outputs": [
        {
          "internalType": "uint256",
          "name": "",
          "type": "uint256"
        }
      ],
      "stateMutability": "view",
      "type": "function"
    },
    {
      "inputs": [
        {
          "internalType": "uint256",
          "name": "tokenAmount",
          "type": "uint256"
        }
      ],
      "name": "buyTokens",
      "outputs": [],
      "stateMutability": "nonpayable",
      "type": "function"
    },
    {
      "inputs": [
        {
          "internalType": "uint256",
          "name": "amount",
          "type": "uint256"
        }
      ],
      "name": "calculatePurchaseCost",
      "outputs": [
        {
          "internalType": "uint256",
          "name": "startPrice",
          "type": "uint256"
        },
        {
          "internalType": "uint256",
          "name": "endPrice",
          "type": "uint256"
        },
        {
          "internalType": "uint256",
          "name": "averagePrice",
          "type": "uint256"
        },
        {
          "internalType": "uint256",
          "name": "totalCost",
          "type": "uint256"
        }
      ],
      "stateMutability": "view",
      "type": "function"
    },
    {
      "inputs": [],
      "name": "claimTokens",
      "outputs": [],
      "stateMutability": "nonpayable",
      "type": "function"
    },
    {
      "inputs": [
        {
          "internalType": "address",
          "name": "user",
          "type": "address"
        }
      ],
      "name": "getClaimableAmount",
      "outputs": [
        {
          "internalType": "uint256",
          "name": "",
          "type": "uint256"
        }
      ],
      "stateMutability": "view",
      "type": "function"
    },
    {
      "inputs": [
        {
          "internalType": "uint256",
          "name": "currentSupply",
          "type": "uint256"
        }
      ],
      "name": "getCurrentPrice",
      "outputs": [
        {
          "internalType": "uint256",
          "name": "",
          "type": "uint256"
        }
      ],
      "stateMutability": "view",
      "type": "function"
    },
    {
      "inputs": [
        {
          "internalType": "address",
          "name": "user",
          "type": "address"
        }
      ],
      "name": "getPurchaseInfo",
      "outputs": [
        {
          "internalType": "uint256",
          "name": "totalTokens",
          "type": "uint256"
        },
        {
          "internalType": "uint256",
          "name": "claimed",
          "type": "uint256"
        },
        {
          "internalType": "uint256",
          "name": "claimable",
          "type": "uint256"
        },
        {
          "internalType": "uint256",
          "name": "lastClaimTime",
          "type": "uint256"
        }
      ],
      "stateMutability": "view",
      "type": "function"
    },
    {
      "inputs": [],
      "name": "getRemainingTokens",
      "outputs": [
        {
          "internalType": "uint256",
          "name": "",
          "type": "uint256"
        }
      ],
      "stateMutability": "view",
      "type": "function"
    },
    {
      "inputs": [],
      "name": "getSaleParameters",
      "outputs": [
        {
          "components": [
            {
              "internalType": "uint256",
              "name": "startTime",
              "type": "uint256"
            },
            {
              "internalType": "uint256",
              "name": "endTime",
              "type": "uint256"
            },
            {
              "internalType": "uint256",
              "name": "maxTokenForSale",
              "type": "uint256"
            },
            {
              "internalType": "uint256",
              "name": "tokenSold",
              "type": "uint256"
            },
            {
              "internalType": "uint256",
              "name": "minPrice",
              "type": "uint256"
            },
            {
              "internalType": "uint256",
              "name": "maxPrice",
              "type": "uint256"
            },
            {
              "internalType": "uint256",
              "name": "scaleFactor",
              "type": "uint256"
            }
          ],
          "internalType": "struct TokenLaunchpad.TokenLaunchpadParameter",
          "name": "",
          "type": "tuple"
        }
      ],
      "stateMutability": "view",
      "type": "function"
    },
    {
      "inputs": [],
      "name": "getVestingParameter",
      "outputs": [
        {
          "components": [
            {
              "internalType": "uint256",
              "name": "immediateReleasePercent",
              "type": "uint256"
            },
            {
              "internalType": "uint256",
              "name": "vestingDuration",
              "type": "uint256"
            }
          ],
          "internalType": "struct TokenLaunchpad.VestingParameter",
          "name": "",
          "type": "tuple"
        }
      ],
      "stateMutability": "view",
      "type": "function"
    },
    {
      "inputs": [
        {
          "internalType": "uint256",
          "name": "startTime",
          "type": "uint256"
        },
        {
          "internalType": "uint256",
          "name": "endTime",
          "type": "uint256"
        },
        {
          "internalType": "uint256",
          "name": "maxTokensForSale",
          "type": "uint256"
        }
      ],
      "name": "initializeSale",
      "outputs": [],
      "stateMutability": "nonpayable",
      "type": "function"
    },
    {
      "inputs": [],
      "name": "isSaleActive",
      "outputs": [
        {
          "internalType": "bool",
          "name": "",
          "type": "bool"
        }
      ],
      "stateMutability": "view",
      "type": "function"
    },
    {
      "inputs": [],
      "name": "launchpadParams",
      "outputs": [
        {
          "internalType": "uint256",
          "name": "startTime",
          "type": "uint256"
        },
        {
          "internalType": "uint256",
          "name": "endTime",
          "type": "uint256"
        },
        {
          "internalType": "uint256",
          "name": "maxTokenForSale",
          "type": "uint256"
        },
        {
          "internalType": "uint256",
          "name": "tokenSold",
          "type": "uint256"
        },
        {
          "internalType": "uint256",
          "name": "minPrice",
          "type": "uint256"
        },
        {
          "internalType": "uint256",
          "name": "maxPrice",
          "type": "uint256"
        },
        {
          "internalType": "uint256",
          "name": "scaleFactor",
          "type": "uint256"
        }
      ],
      "stateMutability": "view",
      "type": "function"
    },
    {
      "inputs": [],
      "name": "owner",
      "outputs": [
        {
          "internalType": "address",
          "name": "",
          "type": "address"
        }
      ],
      "stateMutability": "view",
      "type": "function"
    },
    {
      "inputs": [],
      "name": "paymentToken",
      "outputs": [
        {
          "internalType": "contract IERC20",
          "name": "",
          "type": "address"
        }
      ],
      "stateMutability": "view",
      "type": "function"
    },
    {
      "inputs": [
        {
          "internalType": "address",
          "name": "account",
          "type": "address"
        }
      ],
      "name": "purchases",
      "outputs": [
        {
          "internalType": "uint256",
          "name": "totalTokens",
          "type": "uint256"
        },
        {
          "internalType": "uint256",
          "name": "claimed",
          "type": "uint256"
        },
        {
          "internalType": "uint256",
          "name": "lastClaimTime",
          "type": "uint256"
        }
      ],
      "stateMutability": "view",
      "type": "function"
    },
    {
      "inputs": [],
      "name": "renounceOwnership",
      "outputs": [],
      "stateMutability": "nonpayable",
      "type": "function"
    },
    {
      "inputs": [],
      "name": "saleToken",
      "outputs": [
        {
          "internalType": "contract IERC20",
          "name": "",
          "type": "address"
        }
      ],
      "stateMutability": "view",
      "type": "function"
    },
    {
      "inputs": [
        {
          "internalType": "address",
          "name": "newOwner",
          "type": "address"
        }
      ],
      "name": "transferOwnership",
      "outputs": [],
      "stateMutability": "nonpayable",
      "type": "function"
    },
    {
      "inputs": [],
      "name": "vestingParams",
      "outputs": [
        {
          "internalType": "uint256",
          "name": "immediateReleasePercent",
          "type": "uint256"
        },
        {
          "internalType": "uint256",
          "name": "vestingDuration",
          "type": "uint256"
        }
      ],
      "stateMutability": "view",
      "type": "function"
    },
    {
      "inputs": [],
      "name": "withdrawPaymentTokens",
      "outputs": [],
      "stateMutability": "nonpayable",
      "type": "function"
    },
    {
      "inputs": [],
      "name": "withdrawUnsoldTokens",
      "outputs": [],
      "stateMutability": "nonpayable",
      "type": "function"
    }
  ],
  "bytecode": "0x608060405234801561001057600080fd5b50604051612e02380380612e0283398181016040528101906100329190610584565b33600073ffffffffffffffffffffffffffffffffffffffff168173ffffffffffffffffffffffffffffffffffffffff16036100a55760006040517f1e4fbdf700000000000000000000000000000000000000000000000000000000815260040161009c9190610635565b60405180910390fd5b6100b48161042760201b60201c565b5060018081905550600073ffffffffffffffffffffffffffffffffffffffff168773ffffffffffffffffffffffffffffffffffffffff160361012b576040517f08c379a0000000000000000000000000000000000000000000000000000000008152600401610122906106ad565b60405180910390fd5b600073ffffffffffffffffffffffffffffffffffffffff168673ffffffffffffffffffffffffffffffffffffffff160361019a576040517f08c379a000000000000000000000000000000000000000000000000000000000815260040161019190610719565b60405180910390fd5b600085116101dd576040517f08c379a00000000000000000000000000000000000000000000000000000000081526004016101d490610785565b60405180910390fd5b84841161021f576040517f08c379a0000000000000000000000000000000000000000000000000000000008152600401610216906107f1565b60405180910390fd5b60008311610262576040517f08c379a00000000000000000000000000000000000000000000000000000000081526004016102599061085d565b60405180910390fd5b60648211156102a6576040517f08c379a000000000000000000000000000000000000000000000000000000000815260040161029d906108ef565b60405180910390fd5b600081116102e9576040517f08c379a00000000000000000000000000000000000000000000000000000000081526004016102e090610981565b60405180910390fd5b86600260006101000a81548173ffffffffffffffffffffffffffffffffffffffff021916908373ffffffffffffffffffffffffffffffffffffffff16021790555085600360006101000a81548173ffffffffffffffffffffffffffffffffffffffff021916908373ffffffffffffffffffffffffffffffffffffffff1602179055506040518060e0016040528060008152602001600081526020016000815260200160008152602001868152602001858152602001848152506004600082015181600001556020820151816001015560408201518160020155606082015181600301556080820151816004015560a0820151816005015560c08201518160060155905050604051806040016040528083815260200182815250600b6000820151816000015560208201518160010155905050505050505050506109a1565b60008060009054906101000a900473ffffffffffffffffffffffffffffffffffffffff169050816000806101000a81548173ffffffffffffffffffffffffffffffffffffffff021916908373ffffffffffffffffffffffffffffffffffffffff1602179055508173ffffffffffffffffffffffffffffffffffffffff168173ffffffffffffffffffffffffffffffffffffffff167f8be0079c531659141344cd1fd0a4f28419497f9722a3daafe3b4186f6b6457e060405160405180910390a35050565b600080fd5b600073ffffffffffffffffffffffffffffffffffffffff82169050919050565b600061051b826104f0565b9050919050565b61052b81610510565b811461053657600080fd5b50565b60008151905061054881610522565b92915050565b6000819050919050565b6105618161054e565b811461056c57600080fd5b50565b60008151905061057e81610558565b92915050565b600080600080600080600060e0888a0312156105a3576105a26104eb565b5b60006105b18a828b01610539565b97505060206105c28a828b01610539565b96505060406105d38a828b0161056f565b95505060606105e48a828b0161056f565b94505060806105f58a828b0161056f565b93505060a06106068a828b0161056f565b92505060c06106178a828b0161056f565b91505092959891949750929550565b61062f81610510565b82525050565b600060208201905061064a6000830184610626565b92915050565b600082825260208201905092915050565b7f496e76616c69642073616c6520746f6b656e0000000000000000000000000000600082015250565b6000610697601283610650565b91506106a282610661565b602082019050919050565b600060208201905081810360008301526106c68161068a565b9050919050565b7f496e76616c6964207061796d656e7420746f6b656e0000000000000000000000600082015250565b6000610703601583610650565b915061070e826106cd565b602082019050919050565b60006020820190508181036000830152610732816106f6565b9050919050565b7f496e76616c6964206d696e207072696365000000000000000000000000000000600082015250565b600061076f601183610650565b915061077a82610739565b602082019050919050565b6000602082019050818103600083015261079e81610762565b9050919050565b7f496e76616c6964206d6178207072696365000000000000000000000000000000600082015250565b60006107db601183610650565b91506107e6826107a5565b602082019050919050565b6000602082019050818103600083015261080a816107ce565b9050919050565b7f496e76616c6964207363616c6520666163746f72000000000000000000000000600082015250565b6000610847601483610650565b915061085282610811565b602082019050919050565b600060208201905081810360008301526108768161083a565b9050919050565b7f496e76616c696420696d6d6564696174652072656c656173652070657263656e60008201527f7400000000000000000000000000000000000000000000000000000000000000602082015250565b60006108d9602183610650565b91506108e48261087d565b604082019050919050565b60006020820190508181036000830152610908816108cc565b9050919050565b7f56657374696e67206475726174696f6e206d757374206265206772656174657260008201527f207468616e203000000000000000000000000000000000000000000000000000602082015250565b600061096b602783610650565b91506109768261090f565b604082019050919050565b6000602082019050818103600083015261099a8161095e565b9050919050565b612452806109b06000396000f3fe608060405234801561001057600080fd5b50600436106101585760003560e01c8063acd27ef7116100c3578063d3d843671161007c578063d3d8436714610361578063e12f3a611461037f578063e985e367146103af578063eb5d1c39146103cd578063f2fde38b14610400578063fef2c1701461041c57610158565b8063acd27ef714610299578063af35ae27146102cc578063c4b02908146102ea578063c55d0f5614610309578063c8bdbfb614610339578063cfc55e921461034357610158565b80635b7f415c116101155780635b7f415c146101e5578063715018a6146102035780637171225c1461020d578063842a77d31461022b5780638da5cb5b1461025d57806395082d251461027b57610158565b806302778fc01461015d5780632c0fe7d1146101675780633013ce29146101835780633610724e146101a157806348c54b9d146101bd578063564566a8146101c7575b600080fd5b610165610440565b005b610181600480360381019061017c9190611681565b610582565b005b61018b6106fb565b6040516101989190611753565b60405180910390f35b6101bb60048036038101906101b6919061176e565b610721565b005b6101c56109e8565b005b6101cf610bcd565b6040516101dc91906117b6565b60405180910390f35b6101ed610bee565b6040516101fa91906117e0565b60405180910390f35b61020b610bfa565b005b610215610c0e565b60405161022291906117e0565b60405180910390f35b61024560048036038101906102409190611839565b610c15565b60405161025493929190611866565b60405180910390f35b610265610c3f565b60405161027291906118ac565b60405180910390f35b610283610c68565b60405161029091906117e0565b60405180910390f35b6102b360048036038101906102ae919061176e565b610c6f565b6040516102c394939291906118c7565b60405180910390f35b6102d4610d7d565b6040516102e191906117e0565b60405180910390f35b6102f2610d9a565b60405161030092919061190c565b60405180910390f35b610323600480360381019061031e919061176e565b610dac565b60405161033091906117e0565b60405180910390f35b610341610e2b565b005b61034b610f2e565b6040516103589190611973565b60405180910390f35b610369610f5c565b6040516103769190611a1c565b60405180910390f35b61039960048036038101906103949190611839565b610fbc565b6040516103a691906117e0565b60405180910390f35b6103b7611134565b6040516103c49190611753565b60405180910390f35b6103e760048036038101906103e29190611839565b61115a565b6040516103f794939291906118c7565b60405180910390f35b61041a60048036038101906104159190611839565b6111f4565b005b61042461127a565b6040516104379796959493929190611a37565b60405180910390f35b6104486112aa565b6000600360009054906101000a900473ffffffffffffffffffffffffffffffffffffffff1673ffffffffffffffffffffffffffffffffffffffff166370a08231306040518263ffffffff1660e01b81526004016104a591906118ac565b602060405180830381865afa1580156104c2573d6000803e3d6000fd5b505050506040513d601f19601f820116820180604052508101906104e69190611abb565b90506000811161052b576040517f08c379a000000000000000000000000000000000000000000000000000000000815260040161052290611b45565b60405180910390fd5b61057f610536610c3f565b82600360009054906101000a900473ffffffffffffffffffffffffffffffffffffffff1673ffffffffffffffffffffffffffffffffffffffff166113319092919063ffffffff16565b50565b61058a6112aa565b600081116105cd576040517f08c379a00000000000000000000000000000000000000000000000000000000081526004016105c490611bb1565b60405180910390fd5b61061c333083600260009054906101000a900473ffffffffffffffffffffffffffffffffffffffff1673ffffffffffffffffffffffffffffffffffffffff166113b0909392919063ffffffff16565b42831161065e576040517f08c379a000000000000000000000000000000000000000000000000000000000815260040161065590611c1d565b60405180910390fd5b8282116106a0576040517f08c379a000000000000000000000000000000000000000000000000000000000815260040161069790611caf565b60405180910390fd5b8260046000018190555081600460010181905550806004600201819055507fe52825ee0db75b932e0f9f608005a53b3e9597b0bb426e0497c4fb452155ffe060046040516106ee9190611ddd565b60405180910390a1505050565b600360009054906101000a900473ffffffffffffffffffffffffffffffffffffffff1681565b610729611432565b600460000154421015801561074357506004600101544211155b610782576040517f08c379a000000000000000000000000000000000000000000000000000000000815260040161077990611e44565b60405180910390fd5b6000600460000154036107ca576040517f08c379a00000000000000000000000000000000000000000000000000000000081526004016107c190611eb0565b60405180910390fd5b6000811161080d576040517f08c379a000000000000000000000000000000000000000000000000000000000815260040161080490611f1c565b60405180910390fd5b600460020154816004600301546108249190611f6b565b1115610865576040517f08c379a000000000000000000000000000000000000000000000000000000000815260040161085c90611feb565b60405180910390fd5b60008060008061087485610c6f565b9350935093509350600081116108bf576040517f08c379a00000000000000000000000000000000000000000000000000000000081526004016108b690612057565b60405180910390fd5b61090e333083600360009054906101000a900473ffffffffffffffffffffffffffffffffffffffff1673ffffffffffffffffffffffffffffffffffffffff166113b0909392919063ffffffff16565b84600460030160008282546109239190611f6b565b9250508190555084600d60003373ffffffffffffffffffffffffffffffffffffffff1673ffffffffffffffffffffffffffffffffffffffff168152602001908152602001600020600001600082825461097c9190611f6b565b925050819055503373ffffffffffffffffffffffffffffffffffffffff167f6aca558a17acdb28cf36bd17a224740ed6c6a73de4aff1f9aca8c03ec27d2ea886868686866040516109d1959493929190612077565b60405180910390a2505050506109e5611478565b50565b6109f0611432565b6004600101544211610a37576040517f08c379a0000000000000000000000000000000000000000000000000000000008152600401610a2e90612116565b60405180910390fd5b6000610a4233610fbc565b905060008111610a87576040517f08c379a0000000000000000000000000000000000000000000000000000000008152600401610a7e90612182565b60405180910390fd5b80600d60003373ffffffffffffffffffffffffffffffffffffffff1673ffffffffffffffffffffffffffffffffffffffff1681526020019081526020016000206001016000828254610ad99190611f6b565b9250508190555042600d60003373ffffffffffffffffffffffffffffffffffffffff1673ffffffffffffffffffffffffffffffffffffffff16815260200190815260200160002060020181905550610b743382600260009054906101000a900473ffffffffffffffffffffffffffffffffffffffff1673ffffffffffffffffffffffffffffffffffffffff166113319092919063ffffffff16565b3373ffffffffffffffffffffffffffffffffffffffff167f896e034966eaaf1adc54acc0f257056febbd300c9e47182cf761982cf1f5e43082604051610bba91906117e0565b60405180910390a250610bcb611478565b565b60006004600001544210158015610be957506004600101544211155b905090565b670de0b6b3a764000081565b610c026112aa565b610c0c6000611481565b565b62278d0081565b600d6020528060005260406000206000915090508060000154908060010154908060020154905083565b60008060009054906101000a900473ffffffffffffffffffffffffffffffffffffffff16905090565b620f424081565b60008060008060008511610cb8576040517f08c379a0000000000000000000000000000000000000000000000000000000008152600401610caf90611f1c565b60405180910390fd5b60046002015485600460030154610ccf9190611f6b565b1115610d10576040517f08c379a0000000000000000000000000000000000000000000000000000000008152600401610d07906121ee565b60405180910390fd5b610d1e600460030154610dac565b9350610d3985600460030154610d349190611f6b565b610dac565b925060028385610d499190611f6b565b610d53919061223d565b9150670de0b6b3a76400008286610d6a919061226e565b610d74919061223d565b90509193509193565b6000600460030154600460020154610d9591906122b0565b905090565b600b8060000154908060010154905082565b60006004600201548210610dc7576004600501549050610e26565b60006004800154600460050154610dde91906122b0565b9050600083600460060154610df39190611f6b565b90506000818584610e04919061226e565b610e0e919061223d565b6004800154610e1d9190611f6b565b90508093505050505b919050565b610e336112aa565b6004600101544211610e7a576040517f08c379a0000000000000000000000000000000000000000000000000000000008152600401610e7190612330565b60405180910390fd5b6000600460030154600460020154610e9291906122b0565b905060008111610ed7576040517f08c379a0000000000000000000000000000000000000000000000000000000008152600401610ece9061239c565b60405180910390fd5b610f2b610ee2610c3f565b82600260009054906101000a900473ffffffffffffffffffffffffffffffffffffffff1673ffffffffffffffffffffffffffffffffffffffff166113319092919063ffffffff16565b50565b610f366115ef565b600b60405180604001604052908160008201548152602001600182015481525050905090565b610f64611609565b60046040518060e0016040529081600082015481526020016001820154815260200160028201548152602001600382015481526020016004820154815260200160058201548152602001600682015481525050905090565b600080600d60008473ffffffffffffffffffffffffffffffffffffffff1673ffffffffffffffffffffffffffffffffffffffff16815260200190815260200160002060405180606001604052908160008201548152602001600182015481526020016002820154815250509050600081600001510361103f57600091505061112f565b600460010154421161105557600091505061112f565b60006064600b60000154836000015161106e919061226e565b611078919061223d565b9050600081836000015161108c91906122b0565b90506000600460010154426110a191906122b0565b9050600062278d00826110b4919061223d565b9050600b600101548111156110cc57600b6001015490505b6000600b6001015482856110e0919061226e565b6110ea919061223d565b9050600081866110fa9190611f6b565b9050600087602001518211611110576000611121565b87602001518261112091906122b0565b5b905080985050505050505050505b919050565b600260009054906101000a900473ffffffffffffffffffffffffffffffffffffffff1681565b6000806000806000600d60008773ffffffffffffffffffffffffffffffffffffffff1673ffffffffffffffffffffffffffffffffffffffff16815260200190815260200160002060405180606001604052908160008201548152602001600182015481526020016002820154815250509050806000015181602001516111df88610fbc565b83604001519450945094509450509193509193565b6111fc6112aa565b600073ffffffffffffffffffffffffffffffffffffffff168173ffffffffffffffffffffffffffffffffffffffff160361126e5760006040517f1e4fbdf700000000000000000000000000000000000000000000000000000000815260040161126591906118ac565b60405180910390fd5b61127781611481565b50565b60048060000154908060010154908060020154908060030154908060040154908060050154908060060154905087565b6112b2611545565b73ffffffffffffffffffffffffffffffffffffffff166112d0610c3f565b73ffffffffffffffffffffffffffffffffffffffff161461132f576112f3611545565b6040517f118cdaa700000000000000000000000000000000000000000000000000000000815260040161132691906118ac565b60405180910390fd5b565b6113ab838473ffffffffffffffffffffffffffffffffffffffff1663a9059cbb85856040516024016113649291906123bc565b604051602081830303815290604052915060e01b6020820180517bffffffffffffffffffffffffffffffffffffffffffffffffffffffff838183161783525050505061154d565b505050565b61142c848573ffffffffffffffffffffffffffffffffffffffff166323b872dd8686866040516024016113e5939291906123e5565b604051602081830303815290604052915060e01b6020820180517bffffffffffffffffffffffffffffffffffffffffffffffffffffffff838183161783525050505061154d565b50505050565b60026001540361146e576040517f3ee5aeb500000000000000000000000000000000000000000000000000000000815260040160405180910390fd5b6002600181905550565b60018081905550565b60008060009054906101000a900473ffffffffffffffffffffffffffffffffffffffff169050816000806101000a81548173ffffffffffffffffffffffffffffffffffffffff021916908373ffffffffffffffffffffffffffffffffffffffff1602179055508173ffffffffffffffffffffffffffffffffffffffff168173ffffffffffffffffffffffffffffffffffffffff167f8be0079c531659141344cd1fd0a4f28419497f9722a3daafe3b4186f6b6457e060405160405180910390a35050565b600033905090565b600080602060008451602086016000885af180611570576040513d6000823e3d81fd5b3d92506000519150506000821461158b5760018114156115a7565b60008473ffffffffffffffffffffffffffffffffffffffff163b145b156115e957836040517f5274afe70000000000000000000000000000000000000000000000000000000081526004016115e091906118ac565b60405180910390fd5b50505050565b604051806040016040528060008152602001600081525090565b6040518060e00160405280600081526020016000815260200160008152602001600081526020016000815260200160008152602001600081525090565b600080fd5b6000819050919050565b61165e8161164b565b811461166957600080fd5b50565b60008135905061167b81611655565b92915050565b60008060006060848603121561169a57611699611646565b5b60006116a88682870161166c565b93505060206116b98682870161166c565b92505060406116ca8682870161166c565b9150509250925092565b600073ffffffffffffffffffffffffffffffffffffffff82169050919050565b6000819050919050565b600061171961171461170f846116d4565b6116f4565b6116d4565b9050919050565b600061172b826116fe565b9050919050565b600061173d82611720565b9050919050565b61174d81611732565b82525050565b60006020820190506117686000830184611744565b92915050565b60006020828403121561178457611783611646565b5b60006117928482850161166c565b91505092915050565b60008115159050919050565b6117b08161179b565b82525050565b60006020820190506117cb60008301846117a7565b92915050565b6117da8161164b565b82525050565b60006020820190506117f560008301846117d1565b92915050565b6000611806826116d4565b9050919050565b611816816117fb565b811461182157600080fd5b50565b6000813590506118338161180d565b92915050565b60006020828403121561184f5761184e611646565b5b600061185d84828501611824565b91505092915050565b600060608201905061187b60008301866117d1565b61188860208301856117d1565b61189560408301846117d1565b949350505050565b6118a6816117fb565b82525050565b60006020820190506118c1600083018461189d565b92915050565b60006080820190506118dc60008301876117d1565b6118e960208301866117d1565b6118f660408301856117d1565b61190360608301846117d1565b95945050505050565b600060408201905061192160008301856117d1565b61192e60208301846117d1565b9392505050565b61193e8161164b565b82525050565b60408201600082015161195a6000850182611935565b50602082015161196d6020850182611935565b50505050565b60006040820190506119886000830184611944565b92915050565b60e0820160008201516119a46000850182611935565b5060208201516119b76020850182611935565b5060408201516119ca6040850182611935565b5060608201516119dd6060850182611935565b5060808201516119f06080850182611935565b5060a0820151611a0360a0850182611935565b5060c0820151611a1660c0850182611935565b50505050565b600060e082019050611a31600083018461198e565b92915050565b600060e082019050611a4c600083018a6117d1565b611a5960208301896117d1565b611a6660408301886117d1565b611a7360608301876117d1565b611a8060808301866117d1565b611a8d60a08301856117d1565b611a9a60c08301846117d1565b98975050505050505050565b600081519050611ab581611655565b92915050565b600060208284031215611ad157611ad0611646565b5b6000611adf84828501611aa6565b91505092915050565b600082825260208201905092915050565b7f4e6f205553444320746f20776974686472617700000000000000000000000000600082015250565b6000611b2f601383611ae8565b9150611b3a82611af9565b602082019050919050565b60006020820190508181036000830152611b5e81611b22565b9050919050565b7f416d6f756e74206d7573742062652067726561746572207468616e2030000000600082015250565b6000611b9b601d83611ae8565b9150611ba682611b65565b602082019050919050565b60006020820190508181036000830152611bca81611b8e565b9050919050565b7f53616c65206d75737420737461727420696e2074686520667574757265000000600082015250565b6000611c07601d83611ae8565b9150611c1282611bd1565b602082019050919050565b60006020820190508181036000830152611c3681611bfa565b9050919050565b7f456e642074696d65206d7573742062652061667465722073746172742074696d60008201527f6500000000000000000000000000000000000000000000000000000000000000602082015250565b6000611c99602183611ae8565b9150611ca482611c3d565b604082019050919050565b60006020820190508181036000830152611cc881611c8c565b9050919050565b60008160001c9050919050565b6000819050919050565b6000611cf9611cf483611ccf565b611cdc565b9050919050565b60e082016000808301549050611d1581611ce6565b611d226000860182611935565b5060018301549050611d3381611ce6565b611d406020860182611935565b5060028301549050611d5181611ce6565b611d5e6040860182611935565b5060038301549050611d6f81611ce6565b611d7c6060860182611935565b5060048301549050611d8d81611ce6565b611d9a6080860182611935565b5060058301549050611dab81611ce6565b611db860a0860182611935565b5060068301549050611dc981611ce6565b611dd660c0860182611935565b5050505050565b600060e082019050611df26000830184611d00565b92915050565b7f53616c65206e6f74206163746976650000000000000000000000000000000000600082015250565b6000611e2e600f83611ae8565b9150611e3982611df8565b602082019050919050565b60006020820190508181036000830152611e5d81611e21565b9050919050565b7f53616c65206e6f7420696e697469616c697a6564000000000000000000000000600082015250565b6000611e9a601483611ae8565b9150611ea582611e64565b602082019050919050565b60006020820190508181036000830152611ec981611e8d565b9050919050565b7f416d6f756e74206d757374206265203e20300000000000000000000000000000600082015250565b6000611f06601283611ae8565b9150611f1182611ed0565b602082019050919050565b60006020820190508181036000830152611f3581611ef9565b9050919050565b7f4e487b7100000000000000000000000000000000000000000000000000000000600052601160045260246000fd5b6000611f768261164b565b9150611f818361164b565b9250828201905080821115611f9957611f98611f3c565b5b92915050565b7f496e73756666696369656e7420746f6b656e7320617661696c61626c65000000600082015250565b6000611fd5601d83611ae8565b9150611fe082611f9f565b602082019050919050565b6000602082019050818103600083015261200481611fc8565b9050919050565b7f496e76616c696420707572636861736520616d6f756e74000000000000000000600082015250565b6000612041601783611ae8565b915061204c8261200b565b602082019050919050565b6000602082019050818103600083015261207081612034565b9050919050565b600060a08201905061208c60008301886117d1565b61209960208301876117d1565b6120a660408301866117d1565b6120b360608301856117d1565b6120c060808301846117d1565b9695505050505050565b7f53616c65206e6f7420656e646564207965740000000000000000000000000000600082015250565b6000612100601283611ae8565b915061210b826120ca565b602082019050919050565b6000602082019050818103600083015261212f816120f3565b9050919050565b7f4e6f20746f6b656e7320746f20636c61696d0000000000000000000000000000600082015250565b600061216c601283611ae8565b915061217782612136565b602082019050919050565b6000602082019050818103600083015261219b8161215f565b9050919050565b7f496e73756666696369656e7420746f6b656e7300000000000000000000000000600082015250565b60006121d8601383611ae8565b91506121e3826121a2565b602082019050919050565b60006020820190508181036000830152612207816121cb565b9050919050565b7f4e487b7100000000000000000000000000000000000000000000000000000000600052601260045260246000fd5b60006122488261164b565b91506122538361164b565b9250826122635761226261220e565b5b828204905092915050565b60006122798261164b565b91506122848361164b565b92508282026122928161164b565b915082820484148315176122a9576122a8611f3c565b5b5092915050565b60006122bb8261164b565b91506122c68361164b565b92508282039050818111156122de576122dd611f3c565b5b92915050565b7f53616c65206e6f7420656e646564000000000000000000000000000000000000600082015250565b600061231a600e83611ae8565b9150612325826122e4565b602082019050919050565b600060208201905081810360008301526123498161230d565b9050919050565b7f4e6f20756e736f6c6420746f6b656e7300000000000000000000000000000000600082015250565b6000612386601083611ae8565b915061239182612350565b602082019050919050565b600060208201905081810360008301526123b581612379565b9050919050565b60006040820190506123d1600083018561189d565b6123de60208301846117d1565b9392505050565b60006060820190506123fa600083018661189d565b612407602083018561189d565b61241460408301846117d1565b94935050505056fea2646970667358221220285efdcf42b9ca4fe81ca966c2141534cc90d312ca9938a9e84b9bc867ce077764736f6c634300081c0033",
  "linkReferences": {},
  "deployedLinkReferences": {}
}