{
  "_format": "hh-sol-artifact-1",
  "contractName": "TieredTokenLocker",
  "sourceName": "contracts/TieredTokenLocker.sol",
  "abi": [
    {
      "inputs": [
        {
          "internalType": "address",
          "name": "tokenAddress",
          "type": "address"
        },
        {
          "internalType": "uint256",
          "name": "_lockPeriod",
          "type": "uint256"
        }
      ],
      "stateMutability": "nonpayable",
      "type": "constructor"
    },
    {
      "inputs": [],
      "name": "LockPeriodNotExpired",
      "type": "error"
    },
    {
      "inputs": [],
      "name": "MinimumBasicThreshold",
      "type": "error"
    },
    {
      "inputs": [],
      "name": "NoExistingLocking",
      "type": "error"
    },
    {
      "inputs": [],
      "name": "NonZeroAmount",
      "type": "error"
    },
    {
      "inputs": [],
      "name": "ReentrancyGuardReentrantCall",
      "type": "error"
    },
    {
      "inputs": [
        {
          "internalType": "address",
          "name": "token",
          "type": "address"
        }
      ],
      "name": "SafeERC20FailedOperation",
      "type": "error"
    },
    {
      "anonymous": false,
      "inputs": [
        {
          "indexed": true,
          "internalType": "address",
          "name": "user",
          "type": "address"
        },
        {
          "indexed": false,
          "internalType": "enum ITieredTokenLocker.Tier",
          "name": "oldTier",
          "type": "uint8"
        },
        {
          "indexed": false,
          "internalType": "enum ITieredTokenLocker.Tier",
          "name": "newTier",
          "type": "uint8"
        }
      ],
      "name": "TierUpgraded",
      "type": "event"
    },
    {
      "anonymous": false,
      "inputs": [
        {
          "indexed": true,
          "internalType": "address",
          "name": "user",
          "type": "address"
        },
        {
          "indexed": false,
          "internalType": "uint256",
          "name": "amount",
          "type": "uint256"
        },
        {
          "indexed": false,
          "internalType": "enum ITieredTokenLocker.Tier",
          "name": "oldTier",
          "type": "uint8"
        },
        {
          "indexed": false,
          "internalType": "enum ITieredTokenLocker.Tier",
          "name": "newTier",
          "type": "uint8"
        },
        {
          "indexed": false,
          "internalType": "uint256",
          "name": "newUnlockTime",
          "type": "uint256"
        }
      ],
      "name": "TokensAdded",
      "type": "event"
    },
    {
      "anonymous": false,
      "inputs": [
        {
          "indexed": true,
          "internalType": "address",
          "name": "user",
          "type": "address"
        },
        {
          "indexed": false,
          "internalType": "uint256",
          "name": "amount",
          "type": "uint256"
        },
        {
          "indexed": false,
          "internalType": "enum ITieredTokenLocker.Tier",
          "name": "newTier",
          "type": "uint8"
        },
        {
          "indexed": false,
          "internalType": "uint256",
          "name": "unlockTime",
          "type": "uint256"
        }
      ],
      "name": "TokensLocked",
      "type": "event"
    },
    {
      "anonymous": false,
      "inputs": [
        {
          "indexed": true,
          "internalType": "address",
          "name": "user",
          "type": "address"
        },
        {
          "indexed": false,
          "internalType": "uint256",
          "name": "amount",
          "type": "uint256"
        }
      ],
      "name": "TokensUnlocked",
      "type": "event"
    },
    {
      "inputs": [],
      "name": "BASIC_THRESHOLD",
      "outputs": [
        {
          "internalType": "uint256",
          "name": "",
          "type": "uint256"
        }
      ],
      "stateMutability": "view",
      "type": "function"
    },
    {
      "inputs": [],
      "name": "BRONZE_THRESHOLD",
      "outputs": [
        {
          "internalType": "uint256",
          "name": "",
          "type": "uint256"
        }
      ],
      "stateMutability": "view",
      "type": "function"
    },
    {
      "inputs": [],
      "name": "DIAMOND_THRESHOLD",
      "outputs": [
        {
          "internalType": "uint256",
          "name": "",
          "type": "uint256"
        }
      ],
      "stateMutability": "view",
      "type": "function"
    },
    {
      "inputs": [],
      "name": "GOLD_THRESHOLD",
      "outputs": [
        {
          "internalType": "uint256",
          "name": "",
          "type": "uint256"
        }
      ],
      "stateMutability": "view",
      "type": "function"
    },
    {
      "inputs": [],
      "name": "SILVER_THRESHOLD",
      "outputs": [
        {
          "internalType": "uint256",
          "name": "",
          "type": "uint256"
        }
      ],
      "stateMutability": "view",
      "type": "function"
    },
    {
      "inputs": [
        {
          "internalType": "address",
          "name": "user",
          "type": "address"
        }
      ],
      "name": "getLockInfo",
      "outputs": [
        {
          "internalType": "uint256",
          "name": "amount",
          "type": "uint256"
        },
        {
          "internalType": "uint256",
          "name": "unlockTime",
          "type": "uint256"
        },
        {
          "internalType": "enum ITieredTokenLocker.Tier",
          "name": "tier",
          "type": "uint8"
        },
        {
          "internalType": "bool",
          "name": "canUnlock",
          "type": "bool"
        }
      ],
      "stateMutability": "view",
      "type": "function"
    },
    {
      "inputs": [
        {
          "internalType": "address",
          "name": "user",
          "type": "address"
        }
      ],
      "name": "getRemainingLockTime",
      "outputs": [
        {
          "internalType": "uint256",
          "name": "remainingTime",
          "type": "uint256"
        }
      ],
      "stateMutability": "view",
      "type": "function"
    },
    {
      "inputs": [
        {
          "internalType": "enum ITieredTokenLocker.Tier",
          "name": "tier",
          "type": "uint8"
        }
      ],
      "name": "getTierName",
      "outputs": [
        {
          "internalType": "string",
          "name": "",
          "type": "string"
        }
      ],
      "stateMutability": "pure",
      "type": "function"
    },
    {
      "inputs": [
        {
          "internalType": "address",
          "name": "user",
          "type": "address"
        }
      ],
      "name": "hasActiveLock",
      "outputs": [
        {
          "internalType": "bool",
          "name": "",
          "type": "bool"
        }
      ],
      "stateMutability": "view",
      "type": "function"
    },
    {
      "inputs": [],
      "name": "lockPeriod",
      "outputs": [
        {
          "internalType": "uint256",
          "name": "",
          "type": "uint256"
        }
      ],
      "stateMutability": "view",
      "type": "function"
    },
    {
      "inputs": [
        {
          "internalType": "uint256",
          "name": "amount",
          "type": "uint256"
        }
      ],
      "name": "lockTokens",
      "outputs": [],
      "stateMutability": "nonpayable",
      "type": "function"
    },
    {
      "inputs": [],
      "name": "lockedToken",
      "outputs": [
        {
          "internalType": "contract IERC20",
          "name": "",
          "type": "address"
        }
      ],
      "stateMutability": "view",
      "type": "function"
    },
    {
      "inputs": [
        {
          "internalType": "address",
          "name": "",
          "type": "address"
        }
      ],
      "name": "locks",
      "outputs": [
        {
          "internalType": "uint256",
          "name": "amount",
          "type": "uint256"
        },
        {
          "internalType": "uint256",
          "name": "lastDepositTime",
          "type": "uint256"
        },
        {
          "internalType": "enum ITieredTokenLocker.Tier",
          "name": "currentTier",
          "type": "uint8"
        },
        {
          "internalType": "bool",
          "name": "exists",
          "type": "bool"
        }
      ],
      "stateMutability": "view",
      "type": "function"
    },
    {
      "inputs": [],
      "name": "unlockTokens",
      "outputs": [],
      "stateMutability": "nonpayable",
      "type": "function"
    }
  ],
  "bytecode": "0x60c060405234801561001057600080fd5b50604051611b16380380611b1683398181016040528101906100329190610185565b6001600081905550600073ffffffffffffffffffffffffffffffffffffffff168273ffffffffffffffffffffffffffffffffffffffff16036100a9576040517f08c379a00000000000000000000000000000000000000000000000000000000081526004016100a090610222565b60405180910390fd5b8173ffffffffffffffffffffffffffffffffffffffff1660808173ffffffffffffffffffffffffffffffffffffffff16815250508060a081815250505050610242565b600080fd5b600073ffffffffffffffffffffffffffffffffffffffff82169050919050565b600061011c826100f1565b9050919050565b61012c81610111565b811461013757600080fd5b50565b60008151905061014981610123565b92915050565b6000819050919050565b6101628161014f565b811461016d57600080fd5b50565b60008151905061017f81610159565b92915050565b6000806040838503121561019c5761019b6100ec565b5b60006101aa8582860161013a565b92505060206101bb85828601610170565b9150509250929050565b600082825260208201905092915050565b7f496e76616c696420746f6b656e20616464726573730000000000000000000000600082015250565b600061020c6015836101c5565b9150610217826101d6565b602082019050919050565b6000602082019050818103600083015261023b816101ff565b9050919050565b60805160a05161187761029f6000396000818161031101528181610403015281816106c501528181610ad201528181610db00152610f560152600081816102ed01528181610bc301528181610cf20152610f0001526118776000f3fe608060405234801561001057600080fd5b50600436106100ea5760003560e01c80636e27d8891161008c578063a20fa31211610066578063a20fa31214610255578063c1a0db3014610285578063e64bd593146102a3578063f968f493146102d3576100ea565b80636e27d889146101e85780637238ccdb14610204578063826dc14214610237576100ea565b806347304494116100c8578063473044941461014957806356973974146101795780635de9a1371461019757806369a2f026146101ca576100ea565b80630b8df9f1146100ef5780630f45cc811461010d5780633fd8b02f1461012b575b600080fd5b6100f76102dd565b6040516101049190611307565b60405180910390f35b6101156102eb565b60405161012291906113a1565b60405180910390f35b61013361030f565b6040516101409190611307565b60405180910390f35b610163600480360381019061015e91906113ff565b610333565b6040516101709190611307565b60405180910390f35b61018161045b565b60405161018e9190611307565b60405180910390f35b6101b160048036038101906101ac91906113ff565b610469565b6040516101c194939291906114be565b60405180910390f35b6101d26104b3565b6040516101df9190611307565b60405180910390f35b61020260048036038101906101fd919061152f565b6104c0565b005b61021e600480360381019061021991906113ff565b6105e8565b60405161022e94939291906114be565b60405180910390f35b61023f610715565b60405161024c9190611307565b60405180910390f35b61026f600480360381019061026a91906113ff565b610722565b60405161027c919061155c565b60405180910390f35b61028d61077b565b60405161029a9190611307565b60405180910390f35b6102bd60048036038101906102b8919061159c565b610789565b6040516102ca9190611659565b60405180910390f35b6102db6109d5565b005b691a784379d99db420000081565b7f000000000000000000000000000000000000000000000000000000000000000081565b7f000000000000000000000000000000000000000000000000000000000000000081565b600080600160008473ffffffffffffffffffffffffffffffffffffffff1673ffffffffffffffffffffffffffffffffffffffff16815260200190815260200160002060405180608001604052908160008201548152602001600182015481526020016002820160009054906101000a900460ff1660058111156103b9576103b861142c565b5b60058111156103cb576103ca61142c565b5b81526020016002820160019054906101000a900460ff161515151581525050905080606001516103ff576000915050610456565b60007f0000000000000000000000000000000000000000000000000000000000000000826020015161043191906116aa565b905080421061044557600092505050610456565b428161045191906116de565b925050505b919050565b69065a4da25d3016c0000081565b60016020528060005260406000206000915090508060000154908060010154908060020160009054906101000a900460ff16908060020160019054906101000a900460ff16905084565b68878678326eac90000081565b6104c8610c61565b60008103610502576040517ff55c854200000000000000000000000000000000000000000000000000000000815260040160405180910390fd5b6000600160003373ffffffffffffffffffffffffffffffffffffffff1673ffffffffffffffffffffffffffffffffffffffff16815260200190815260200160002060405180608001604052908160008201548152602001600182015481526020016002820160009054906101000a900460ff1660058111156105875761058661142c565b5b60058111156105995761059861142c565b5b81526020016002820160019054906101000a900460ff16151515158152505090508060600151156105d2576105cd82610ca7565b6105dc565b6105db82610eb5565b5b506105e56110b5565b50565b6000806000806000600160008773ffffffffffffffffffffffffffffffffffffffff1673ffffffffffffffffffffffffffffffffffffffff16815260200190815260200160002060405180608001604052908160008201548152602001600182015481526020016002820160009054906101000a900460ff1660058111156106735761067261142c565b5b60058111156106855761068461142c565b5b81526020016002820160019054906101000a900460ff161515151581525050905080606001516106c35760008060008094509450945094505061070e565b7f000000000000000000000000000000000000000000000000000000000000000081602001516106f391906116aa565b93508342101591508060000151848260400151945094509450505b9193509193565b681b1ae4d6e2ef50000081565b6000600160008373ffffffffffffffffffffffffffffffffffffffff1673ffffffffffffffffffffffffffffffffffffffff16815260200190815260200160002060020160019054906101000a900460ff169050919050565b69010f0cf064dd5920000081565b606060058081111561079e5761079d61142c565b5b8260058111156107b1576107b061142c565b5b036107f3576040518060400160405280600781526020017f4469616d6f6e640000000000000000000000000000000000000000000000000081525090506109d0565b600460058111156108075761080661142c565b5b82600581111561081a5761081961142c565b5b0361085c576040518060400160405280600481526020017f476f6c640000000000000000000000000000000000000000000000000000000081525090506109d0565b600360058111156108705761086f61142c565b5b8260058111156108835761088261142c565b5b036108c5576040518060400160405280600681526020017f53696c766572000000000000000000000000000000000000000000000000000081525090506109d0565b600260058111156108d9576108d861142c565b5b8260058111156108ec576108eb61142c565b5b0361092e576040518060400160405280600681526020017f42726f6e7a65000000000000000000000000000000000000000000000000000081525090506109d0565b600160058111156109425761094161142c565b5b8260058111156109555761095461142c565b5b03610997576040518060400160405280600581526020017f426173696300000000000000000000000000000000000000000000000000000081525090506109d0565b6040518060400160405280600481526020017f4e6f6e650000000000000000000000000000000000000000000000000000000081525090505b919050565b6109dd610c61565b6000600160003373ffffffffffffffffffffffffffffffffffffffff1673ffffffffffffffffffffffffffffffffffffffff16815260200190815260200160002060405180608001604052908160008201548152602001600182015481526020016002820160009054906101000a900460ff166005811115610a6257610a6161142c565b5b6005811115610a7457610a7361142c565b5b81526020016002820160019054906101000a900460ff16151515158152505090508060600151610ad0576040517f9f9517fa00000000000000000000000000000000000000000000000000000000815260040160405180910390fd5b7f00000000000000000000000000000000000000000000000000000000000000008160200151610b0091906116aa565b421015610b39576040517ff594da3400000000000000000000000000000000000000000000000000000000815260040160405180910390fd5b600081600001519050600160003373ffffffffffffffffffffffffffffffffffffffff1673ffffffffffffffffffffffffffffffffffffffff16815260200190815260200160002060008082016000905560018201600090556002820160006101000a81549060ff02191690556002820160016101000a81549060ff02191690555050610c0733827f000000000000000000000000000000000000000000000000000000000000000073ffffffffffffffffffffffffffffffffffffffff166110bf9092919063ffffffff16565b3373ffffffffffffffffffffffffffffffffffffffff167fe7b379c6c1fa169e9079c25e9143b127637eef8ec8c9d5c06ddb4ab3e119588882604051610c4d9190611307565b60405180910390a25050610c5f6110b5565b565b600260005403610c9d576040517f3ee5aeb500000000000000000000000000000000000000000000000000000000815260040160405180910390fd5b6002600081905550565b6000600160003373ffffffffffffffffffffffffffffffffffffffff1673ffffffffffffffffffffffffffffffffffffffff1681526020019081526020016000209050610d373330847f000000000000000000000000000000000000000000000000000000000000000073ffffffffffffffffffffffffffffffffffffffff1661113e909392919063ffffffff16565b60008160020160009054906101000a900460ff1690506000838360000154610d5f91906116aa565b90506000610d6c826111c0565b9050818460000181905550428460010181905550808460020160006101000a81548160ff02191690836005811115610da757610da661142c565b5b021790555060007f000000000000000000000000000000000000000000000000000000000000000042610dda91906116aa565b90503373ffffffffffffffffffffffffffffffffffffffff167f17f7bd2ed6e916c497152665e2c0d342688ab50d5f657723a46ae8c418ea61da87868585604051610e289493929190611712565b60405180910390a2836005811115610e4357610e4261142c565b5b826005811115610e5657610e5561142c565b5b1115610ead573373ffffffffffffffffffffffffffffffffffffffff167fcbbf00b5f55f1857f9362f521999f79036413e420d1b236d6bc143af30db731a8584604051610ea4929190611757565b60405180910390a25b505050505050565b681b1ae4d6e2ef500000811015610ef8576040517fd6d3239c00000000000000000000000000000000000000000000000000000000815260040160405180910390fd5b610f453330837f000000000000000000000000000000000000000000000000000000000000000073ffffffffffffffffffffffffffffffffffffffff1661113e909392919063ffffffff16565b6000610f50826111c0565b905060007f000000000000000000000000000000000000000000000000000000000000000042610f8091906116aa565b90506040518060800160405280848152602001428152602001836005811115610fac57610fab61142c565b5b815260200160011515815250600160003373ffffffffffffffffffffffffffffffffffffffff1673ffffffffffffffffffffffffffffffffffffffff168152602001908152602001600020600082015181600001556020820151816001015560408201518160020160006101000a81548160ff021916908360058111156110365761103561142c565b5b021790555060608201518160020160016101000a81548160ff0219169083151502179055509050503373ffffffffffffffffffffffffffffffffffffffff167f2783fa8affc4dbba2ac9978c432ce95ab38e9c777e2e6cce5b917801b06414218484846040516110a893929190611780565b60405180910390a2505050565b6001600081905550565b611139838473ffffffffffffffffffffffffffffffffffffffff1663a9059cbb85856040516024016110f29291906117c6565b604051602081830303815290604052915060e01b6020820180517bffffffffffffffffffffffffffffffffffffffffffffffffffffffff838183161783525050505061124c565b505050565b6111ba848573ffffffffffffffffffffffffffffffffffffffff166323b872dd868686604051602401611173939291906117ef565b604051602081830303815290604052915060e01b6020820180517bffffffffffffffffffffffffffffffffffffffffffffffffffffffff838183161783525050505061124c565b50505050565b6000691a784379d99db420000082106111dc5760059050611247565b69065a4da25d3016c0000082106111f65760049050611247565b69010f0cf064dd5920000082106112105760039050611247565b68878678326eac90000082106112295760029050611247565b681b1ae4d6e2ef50000082106112425760019050611247565b600090505b919050565b600080602060008451602086016000885af18061126f576040513d6000823e3d81fd5b3d92506000519150506000821461128a5760018114156112a6565b60008473ffffffffffffffffffffffffffffffffffffffff163b145b156112e857836040517f5274afe70000000000000000000000000000000000000000000000000000000081526004016112df9190611826565b60405180910390fd5b50505050565b6000819050919050565b611301816112ee565b82525050565b600060208201905061131c60008301846112f8565b92915050565b600073ffffffffffffffffffffffffffffffffffffffff82169050919050565b6000819050919050565b600061136761136261135d84611322565b611342565b611322565b9050919050565b60006113798261134c565b9050919050565b600061138b8261136e565b9050919050565b61139b81611380565b82525050565b60006020820190506113b66000830184611392565b92915050565b600080fd5b60006113cc82611322565b9050919050565b6113dc816113c1565b81146113e757600080fd5b50565b6000813590506113f9816113d3565b92915050565b600060208284031215611415576114146113bc565b5b6000611423848285016113ea565b91505092915050565b7f4e487b7100000000000000000000000000000000000000000000000000000000600052602160045260246000fd5b6006811061146c5761146b61142c565b5b50565b600081905061147d8261145b565b919050565b600061148d8261146f565b9050919050565b61149d81611482565b82525050565b60008115159050919050565b6114b8816114a3565b82525050565b60006080820190506114d360008301876112f8565b6114e060208301866112f8565b6114ed6040830185611494565b6114fa60608301846114af565b95945050505050565b61150c816112ee565b811461151757600080fd5b50565b60008135905061152981611503565b92915050565b600060208284031215611545576115446113bc565b5b60006115538482850161151a565b91505092915050565b600060208201905061157160008301846114af565b92915050565b6006811061158457600080fd5b50565b60008135905061159681611577565b92915050565b6000602082840312156115b2576115b16113bc565b5b60006115c084828501611587565b91505092915050565b600081519050919050565b600082825260208201905092915050565b60005b838110156116035780820151818401526020810190506115e8565b60008484015250505050565b6000601f19601f8301169050919050565b600061162b826115c9565b61163581856115d4565b93506116458185602086016115e5565b61164e8161160f565b840191505092915050565b600060208201905081810360008301526116738184611620565b905092915050565b7f4e487b7100000000000000000000000000000000000000000000000000000000600052601160045260246000fd5b60006116b5826112ee565b91506116c0836112ee565b92508282019050808211156116d8576116d761167b565b5b92915050565b60006116e9826112ee565b91506116f4836112ee565b925082820390508181111561170c5761170b61167b565b5b92915050565b600060808201905061172760008301876112f8565b6117346020830186611494565b6117416040830185611494565b61174e60608301846112f8565b95945050505050565b600060408201905061176c6000830185611494565b6117796020830184611494565b9392505050565b600060608201905061179560008301866112f8565b6117a26020830185611494565b6117af60408301846112f8565b949350505050565b6117c0816113c1565b82525050565b60006040820190506117db60008301856117b7565b6117e860208301846112f8565b9392505050565b600060608201905061180460008301866117b7565b61181160208301856117b7565b61181e60408301846112f8565b949350505050565b600060208201905061183b60008301846117b7565b9291505056fea264697066735822122092396fc881ca7456fed67dcf763fca779de0615780ae64dfdfb54e365e92d5a764736f6c634300081c0033",
  "linkReferences": {},
  "deployedLinkReferences": {}
}