{
  "_format": "hh-sol-artifact-1",
  "contractName": "Staking",
  "sourceName": "contracts/Staking.sol",
  "abi": [
    {
      "inputs": [
        {
          "internalType": "address",
          "name": "_rewardToken",
          "type": "address"
        },
        {
          "internalType": "address",
          "name": "_stakingToken",
          "type": "address"
        }
      ],
      "stateMutability": "nonpayable",
      "type": "constructor"
    },
    {
      "inputs": [],
      "name": "CurrentDurationNotFinished",
      "type": "error"
    },
    {
      "inputs": [],
      "name": "DurationIsNotSet",
      "type": "error"
    },
    {
      "inputs": [],
      "name": "InsufficientUnstakedShares",
      "type": "error"
    },
    {
      "inputs": [],
      "name": "NonZeroAmount",
      "type": "error"
    },
    {
      "inputs": [
        {
          "internalType": "address",
          "name": "owner",
          "type": "address"
        }
      ],
      "name": "OwnableInvalidOwner",
      "type": "error"
    },
    {
      "inputs": [
        {
          "internalType": "address",
          "name": "account",
          "type": "address"
        }
      ],
      "name": "OwnableUnauthorizedAccount",
      "type": "error"
    },
    {
      "inputs": [],
      "name": "StakingAmountExceedsBalance",
      "type": "error"
    },
    {
      "inputs": [],
      "name": "WithdrawAmountExceedsStakingBalance",
      "type": "error"
    },
    {
      "inputs": [],
      "name": "ZeroRewardRateNotValid",
      "type": "error"
    },
    {
      "anonymous": false,
      "inputs": [
        {
          "indexed": true,
          "internalType": "address",
          "name": "previousOwner",
          "type": "address"
        },
        {
          "indexed": true,
          "internalType": "address",
          "name": "newOwner",
          "type": "address"
        }
      ],
      "name": "OwnershipTransferred",
      "type": "event"
    },
    {
      "anonymous": false,
      "inputs": [
        {
          "indexed": true,
          "internalType": "address",
          "name": "user",
          "type": "address"
        },
        {
          "indexed": false,
          "internalType": "uint256",
          "name": "reward",
          "type": "uint256"
        }
      ],
      "name": "RewardClaimed",
      "type": "event"
    },
    {
      "anonymous": false,
      "inputs": [
        {
          "indexed": false,
          "internalType": "uint256",
          "name": "amount",
          "type": "uint256"
        }
      ],
      "name": "RewardsBurned",
      "type": "event"
    },
    {
      "anonymous": false,
      "inputs": [
        {
          "indexed": true,
          "internalType": "address",
          "name": "user",
          "type": "address"
        },
        {
          "indexed": false,
          "internalType": "uint256",
          "name": "amount",
          "type": "uint256"
        },
        {
          "indexed": false,
          "internalType": "uint256",
          "name": "userBalance",
          "type": "uint256"
        },
        {
          "indexed": false,
          "internalType": "uint256",
          "name": "totalStaked",
          "type": "uint256"
        }
      ],
      "name": "Stake",
      "type": "event"
    },
    {
      "anonymous": false,
      "inputs": [
        {
          "indexed": false,
          "internalType": "uint256",
          "name": "duration",
          "type": "uint256"
        }
      ],
      "name": "StakingDurationUpdated",
      "type": "event"
    },
    {
      "anonymous": false,
      "inputs": [
        {
          "indexed": false,
          "internalType": "uint256",
          "name": "rewardRate",
          "type": "uint256"
        }
      ],
      "name": "StakingRewardsUpdated",
      "type": "event"
    },
    {
      "anonymous": false,
      "inputs": [
        {
          "indexed": true,
          "internalType": "address",
          "name": "user",
          "type": "address"
        },
        {
          "indexed": false,
          "internalType": "uint256",
          "name": "amount",
          "type": "uint256"
        },
        {
          "indexed": false,
          "internalType": "uint256",
          "name": "userBalance",
          "type": "uint256"
        },
        {
          "indexed": false,
          "internalType": "uint256",
          "name": "totalStaked",
          "type": "uint256"
        }
      ],
      "name": "Withdraw",
      "type": "event"
    },
    {
      "inputs": [],
      "name": "MAX_STAKING_SUPPLY",
      "outputs": [
        {
          "internalType": "uint256",
          "name": "",
          "type": "uint256"
        }
      ],
      "stateMutability": "view",
      "type": "function"
    },
    {
      "inputs": [],
      "name": "burnUnstakedRewards",
      "outputs": [],
      "stateMutability": "nonpayable",
      "type": "function"
    },
    {
      "inputs": [],
      "name": "claimReward",
      "outputs": [],
      "stateMutability": "nonpayable",
      "type": "function"
    },
    {
      "inputs": [],
      "name": "duration",
      "outputs": [
        {
          "internalType": "uint256",
          "name": "",
          "type": "uint256"
        }
      ],
      "stateMutability": "view",
      "type": "function"
    },
    {
      "inputs": [
        {
          "internalType": "address",
          "name": "account",
          "type": "address"
        }
      ],
      "name": "earned",
      "outputs": [
        {
          "internalType": "uint256",
          "name": "",
          "type": "uint256"
        }
      ],
      "stateMutability": "view",
      "type": "function"
    },
    {
      "inputs": [],
      "name": "finishAt",
      "outputs": [
        {
          "internalType": "uint256",
          "name": "",
          "type": "uint256"
        }
      ],
      "stateMutability": "view",
      "type": "function"
    },
    {
      "inputs": [],
      "name": "lastTimeRewardApplicable",
      "outputs": [
        {
          "internalType": "uint256",
          "name": "",
          "type": "uint256"
        }
      ],
      "stateMutability": "view",
      "type": "function"
    },
    {
      "inputs": [],
      "name": "owner",
      "outputs": [
        {
          "internalType": "address",
          "name": "",
          "type": "address"
        }
      ],
      "stateMutability": "view",
      "type": "function"
    },
    {
      "inputs": [],
      "name": "renounceOwnership",
      "outputs": [],
      "stateMutability": "nonpayable",
      "type": "function"
    },
    {
      "inputs": [],
      "name": "rewardPerToken",
      "outputs": [
        {
          "internalType": "uint256",
          "name": "",
          "type": "uint256"
        }
      ],
      "stateMutability": "view",
      "type": "function"
    },
    {
      "inputs": [],
      "name": "rewardPerTokenStored",
      "outputs": [
        {
          "internalType": "uint256",
          "name": "",
          "type": "uint256"
        }
      ],
      "stateMutability": "view",
      "type": "function"
    },
    {
      "inputs": [],
      "name": "rewardRate",
      "outputs": [
        {
          "internalType": "uint256",
          "name": "",
          "type": "uint256"
        }
      ],
      "stateMutability": "view",
      "type": "function"
    },
    {
      "inputs": [],
      "name": "rewardToken",
      "outputs": [
        {
          "internalType": "contract IERC20Burnable",
          "name": "",
          "type": "address"
        }
      ],
      "stateMutability": "view",
      "type": "function"
    },
    {
      "inputs": [
        {
          "internalType": "address",
          "name": "",
          "type": "address"
        }
      ],
      "name": "rewards",
      "outputs": [
        {
          "internalType": "uint256",
          "name": "",
          "type": "uint256"
        }
      ],
      "stateMutability": "view",
      "type": "function"
    },
    {
      "inputs": [
        {
          "internalType": "uint256",
          "name": "amount",
          "type": "uint256"
        }
      ],
      "name": "stake",
      "outputs": [],
      "stateMutability": "nonpayable",
      "type": "function"
    },
    {
      "inputs": [
        {
          "internalType": "address",
          "name": "account",
          "type": "address"
        }
      ],
      "name": "stakingBalance",
      "outputs": [
        {
          "internalType": "uint256",
          "name": "",
          "type": "uint256"
        }
      ],
      "stateMutability": "view",
      "type": "function"
    },
    {
      "inputs": [],
      "name": "stakingToken",
      "outputs": [
        {
          "internalType": "contract IERC20",
          "name": "",
          "type": "address"
        }
      ],
      "stateMutability": "view",
      "type": "function"
    },
    {
      "inputs": [],
      "name": "totalShares",
      "outputs": [
        {
          "internalType": "uint256",
          "name": "",
          "type": "uint256"
        }
      ],
      "stateMutability": "pure",
      "type": "function"
    },
    {
      "inputs": [],
      "name": "totalStakingSupply",
      "outputs": [
        {
          "internalType": "uint256",
          "name": "",
          "type": "uint256"
        }
      ],
      "stateMutability": "view",
      "type": "function"
    },
    {
      "inputs": [
        {
          "internalType": "address",
          "name": "newOwner",
          "type": "address"
        }
      ],
      "name": "transferOwnership",
      "outputs": [],
      "stateMutability": "nonpayable",
      "type": "function"
    },
    {
      "inputs": [],
      "name": "unstakedShares",
      "outputs": [
        {
          "internalType": "uint256",
          "name": "",
          "type": "uint256"
        }
      ],
      "stateMutability": "view",
      "type": "function"
    },
    {
      "inputs": [
        {
          "internalType": "uint256",
          "name": "amount",
          "type": "uint256"
        }
      ],
      "name": "updateStaking",
      "outputs": [],
      "stateMutability": "nonpayable",
      "type": "function"
    },
    {
      "inputs": [],
      "name": "updatedAt",
      "outputs": [
        {
          "internalType": "uint256",
          "name": "",
          "type": "uint256"
        }
      ],
      "stateMutability": "view",
      "type": "function"
    },
    {
      "inputs": [
        {
          "internalType": "uint256",
          "name": "_duration",
          "type": "uint256"
        }
      ],
      "name": "uppdateDuration",
      "outputs": [],
      "stateMutability": "nonpayable",
      "type": "function"
    },
    {
      "inputs": [
        {
          "internalType": "address",
          "name": "",
          "type": "address"
        }
      ],
      "name": "userRewardPerTokenPaid",
      "outputs": [
        {
          "internalType": "uint256",
          "name": "",
          "type": "uint256"
        }
      ],
      "stateMutability": "view",
      "type": "function"
    },
    {
      "inputs": [
        {
          "internalType": "uint256",
          "name": "amount",
          "type": "uint256"
        }
      ],
      "name": "withdraw",
      "outputs": [],
      "stateMutability": "nonpayable",
      "type": "function"
    }
  ],
  "bytecode": "0x60c060405234801561001057600080fd5b5060405161202638038061202683398181016040528101906100329190610298565b33600073ffffffffffffffffffffffffffffffffffffffff168173ffffffffffffffffffffffffffffffffffffffff16036100a55760006040517f1e4fbdf700000000000000000000000000000000000000000000000000000000815260040161009c91906102e7565b60405180910390fd5b6100b48161017160201b60201c565b508173ffffffffffffffffffffffffffffffffffffffff1660808173ffffffffffffffffffffffffffffffffffffffff16815250508073ffffffffffffffffffffffffffffffffffffffff1660a08173ffffffffffffffffffffffffffffffffffffffff1681525050687f8e6f49458e240000600260008073ffffffffffffffffffffffffffffffffffffffff1673ffffffffffffffffffffffffffffffffffffffff168152602001908152602001600020819055505050610302565b60008060009054906101000a900473ffffffffffffffffffffffffffffffffffffffff169050816000806101000a81548173ffffffffffffffffffffffffffffffffffffffff021916908373ffffffffffffffffffffffffffffffffffffffff1602179055508173ffffffffffffffffffffffffffffffffffffffff168173ffffffffffffffffffffffffffffffffffffffff167f8be0079c531659141344cd1fd0a4f28419497f9722a3daafe3b4186f6b6457e060405160405180910390a35050565b600080fd5b600073ffffffffffffffffffffffffffffffffffffffff82169050919050565b60006102658261023a565b9050919050565b6102758161025a565b811461028057600080fd5b50565b6000815190506102928161026c565b92915050565b600080604083850312156102af576102ae610235565b5b60006102bd85828601610283565b92505060206102ce85828601610283565b9150509250929050565b6102e18161025a565b82525050565b60006020820190506102fc60008301846102d8565b92915050565b60805160a051611cdc61034a6000396000818161083f01528181610c61015261108e015260008181610b3601528181610e1b0152818161145301526116a30152611cdc6000f3fe608060405234801561001057600080fd5b506004361061018d5760003560e01c80638b876347116100de578063cd3daf9d11610097578063f244b84211610071578063f244b8421461042a578063f2fde38b14610448578063f63ab60f14610464578063f7c618c1146104825761018d565b8063cd3daf9d146103d0578063d6f17bae146103ee578063df136d651461040c5761018d565b80638b876347146103365780638da5cb5b146103665780639f85842d14610384578063a694fc3a1461038e578063a873fecf146103aa578063b88a802f146103c65761018d565b806367d3b4881161014b57806372f702f31161012557806372f702f3146102be5780637519ab50146102dc5780637b0a47ee146102fa57806380faa57d146103185761018d565b806367d3b4881461027a578063715018a61461029857806371ada119146102a25761018d565b80628cc262146101925780630700037d146101c25780630fb5a6b4146101f25780632e1a7d4d146102105780633a98ef391461022c57806345bc78ab1461024a575b600080fd5b6101ac60048036038101906101a79190611895565b6104a0565b6040516101b991906118db565b60405180910390f35b6101dc60048036038101906101d79190611895565b6105a2565b6040516101e991906118db565b60405180910390f35b6101fa6105ba565b60405161020791906118db565b60405180910390f35b61022a60048036038101906102259190611922565b6105c0565b005b6102346108e2565b60405161024191906118db565b60405180910390f35b610264600480360381019061025f9190611895565b6108f3565b60405161027191906118db565b60405180910390f35b61028261093c565b60405161028f91906118db565b60405180910390f35b6102a0610942565b005b6102bc60048036038101906102b79190611922565b610956565b005b6102c6610c5f565b6040516102d391906119ae565b60405180910390f35b6102e4610c83565b6040516102f191906118db565b60405180910390f35b610302610c89565b60405161030f91906118db565b60405180910390f35b610320610c8f565b60405161032d91906118db565b60405180910390f35b610350600480360381019061034b9190611895565b610ca2565b60405161035d91906118db565b60405180910390f35b61036e610cba565b60405161037b91906119d8565b60405180910390f35b61038c610ce3565b005b6103a860048036038101906103a39190611922565b610f24565b005b6103c460048036038101906103bf9190611922565b61128b565b005b6103ce611310565b005b6103d8611543565b6040516103e591906118db565b60405180910390f35b6103f66115bb565b60405161040391906118db565b60405180910390f35b610414611602565b60405161042191906118db565b60405180910390f35b610432611608565b60405161043f91906118db565b60405180910390f35b610462600480360381019061045d9190611895565b61160e565b005b61046c611694565b60405161047991906118db565b60405180910390f35b61048a6116a1565b6040516104979190611a14565b60405180910390f35b6000600960008373ffffffffffffffffffffffffffffffffffffffff1673ffffffffffffffffffffffffffffffffffffffff16815260200190815260200160002054670de0b6b3a7640000600860008573ffffffffffffffffffffffffffffffffffffffff1673ffffffffffffffffffffffffffffffffffffffff16815260200190815260200160002054610533611543565b61053d9190611a5e565b600260008673ffffffffffffffffffffffffffffffffffffffff1673ffffffffffffffffffffffffffffffffffffffff168152602001908152602001600020546105879190611a92565b6105919190611b03565b61059b9190611b34565b9050919050565b60096020528060005260406000206000915090505481565b60035481565b80600081036105fb576040517ff55c854200000000000000000000000000000000000000000000000000000000815260040160405180910390fd5b33610604611543565b600781905550610612610c8f565b600581905550610621816104a0565b600960008373ffffffffffffffffffffffffffffffffffffffff1673ffffffffffffffffffffffffffffffffffffffff16815260200190815260200160002081905550600754600860008373ffffffffffffffffffffffffffffffffffffffff1673ffffffffffffffffffffffffffffffffffffffff168152602001908152602001600020819055506000600260003373ffffffffffffffffffffffffffffffffffffffff1673ffffffffffffffffffffffffffffffffffffffff16815260200190815260200160002054905083811015610728576040517f21dec97500000000000000000000000000000000000000000000000000000000815260040160405180910390fd5b83600260008073ffffffffffffffffffffffffffffffffffffffff1673ffffffffffffffffffffffffffffffffffffffff16815260200190815260200160002060008282546107779190611b34565b92505081905550838161078a9190611a5e565b9050836001600082825461079e9190611a5e565b9250508190555080600260003373ffffffffffffffffffffffffffffffffffffffff1673ffffffffffffffffffffffffffffffffffffffff168152602001908152602001600020819055503373ffffffffffffffffffffffffffffffffffffffff167f02f25270a4d87bea75db541cdfe559334a275b4a233520ed6c0a2429667cca94858360015460405161083593929190611b68565b60405180910390a27f000000000000000000000000000000000000000000000000000000000000000073ffffffffffffffffffffffffffffffffffffffff1663a9059cbb33866040518363ffffffff1660e01b8152600401610898929190611b9f565b6020604051808303816000875af11580156108b7573d6000803e3d6000fd5b505050506040513d601f19601f820116820180604052508101906108db9190611c00565b5050505050565b6000687f8e6f49458e240000905090565b6000600260008373ffffffffffffffffffffffffffffffffffffffff1673ffffffffffffffffffffffffffffffffffffffff168152602001908152602001600020549050919050565b60045481565b61094a6116c5565b610954600061174c565b565b61095e6116c5565b8060008103610999576040517ff55c854200000000000000000000000000000000000000000000000000000000815260040160405180910390fd5b60006109a3611543565b6007819055506109b1610c8f565b6005819055506109c0816104a0565b600960008373ffffffffffffffffffffffffffffffffffffffff1673ffffffffffffffffffffffffffffffffffffffff16815260200190815260200160002081905550600754600860008373ffffffffffffffffffffffffffffffffffffffff1673ffffffffffffffffffffffffffffffffffffffff16815260200190815260200160002081905550600060035403610a85576040517ff211381400000000000000000000000000000000000000000000000000000000815260040160405180910390fd5b600454421115610aa85760035483610a9d9190611b03565b600681905550610ae8565b600060065442600454610abb9190611a5e565b610ac59190611a92565b90506003548185610ad69190611b34565b610ae09190611b03565b600681905550505b600060065403610b24576040517fed8ba96500000000000000000000000000000000000000000000000000000000815260040160405180910390fd5b600354600654610b349190611a92565b7f000000000000000000000000000000000000000000000000000000000000000073ffffffffffffffffffffffffffffffffffffffff166370a08231306040518263ffffffff1660e01b8152600401610b8d91906119d8565b602060405180830381865afa158015610baa573d6000803e3d6000fd5b505050506040513d601f19601f82011682018060405250810190610bce9190611c42565b1015610c06576040517f878a54df00000000000000000000000000000000000000000000000000000000815260040160405180910390fd5b60035442610c149190611b34565b600481905550426005819055507fdfe22e01a05622377b8cd5464792e7154d8261bd562a0dea33c6b7ce038df955600654604051610c5291906118db565b60405180910390a1505050565b7f000000000000000000000000000000000000000000000000000000000000000081565b60055481565b60065481565b6000610c9d60045442611810565b905090565b60086020528060005260406000206000915090505481565b60008060009054906101000a900473ffffffffffffffffffffffffffffffffffffffff16905090565b610ceb6116c5565b6000610cf5611543565b600781905550610d03610c8f565b600581905550610d12816104a0565b600960008373ffffffffffffffffffffffffffffffffffffffff1673ffffffffffffffffffffffffffffffffffffffff16815260200190815260200160002081905550600754600860008373ffffffffffffffffffffffffffffffffffffffff1673ffffffffffffffffffffffffffffffffffffffff168152602001908152602001600020819055506000600960008073ffffffffffffffffffffffffffffffffffffffff1673ffffffffffffffffffffffffffffffffffffffff16815260200190815260200160002054905060008103610e19576040517ff55c854200000000000000000000000000000000000000000000000000000000815260040160405180910390fd5b7f000000000000000000000000000000000000000000000000000000000000000073ffffffffffffffffffffffffffffffffffffffff166342966c68826040518263ffffffff1660e01b8152600401610e7291906118db565b600060405180830381600087803b158015610e8c57600080fd5b505af1158015610ea0573d6000803e3d6000fd5b505050506000600960008073ffffffffffffffffffffffffffffffffffffffff1673ffffffffffffffffffffffffffffffffffffffff168152602001908152602001600020819055507f44d5cd18c37b86a3423952287006d9550ab3cff404d6e899d5499d9ef87100b581604051610f1891906118db565b60405180910390a15050565b8060008103610f5f576040517ff55c854200000000000000000000000000000000000000000000000000000000815260040160405180910390fd5b33610f68611543565b600781905550610f76610c8f565b600581905550610f85816104a0565b600960008373ffffffffffffffffffffffffffffffffffffffff1673ffffffffffffffffffffffffffffffffffffffff16815260200190815260200160002081905550600754600860008373ffffffffffffffffffffffffffffffffffffffff1673ffffffffffffffffffffffffffffffffffffffff168152602001908152602001600020819055506000600260008073ffffffffffffffffffffffffffffffffffffffff1673ffffffffffffffffffffffffffffffffffffffff1681526020019081526020016000205490508381101561108c576040517f1a61620300000000000000000000000000000000000000000000000000000000815260040160405180910390fd5b7f000000000000000000000000000000000000000000000000000000000000000073ffffffffffffffffffffffffffffffffffffffff166323b872dd3330876040518463ffffffff1660e01b81526004016110e993929190611c6f565b6020604051808303816000875af1158015611108573d6000803e3d6000fd5b505050506040513d601f19601f8201168201806040525081019061112c9190611c00565b5083600260008073ffffffffffffffffffffffffffffffffffffffff1673ffffffffffffffffffffffffffffffffffffffff168152602001908152602001600020600082825461117c9190611a5e565b9250508190555083600260003373ffffffffffffffffffffffffffffffffffffffff1673ffffffffffffffffffffffffffffffffffffffff16815260200190815260200160002060008282546111d29190611b34565b9250508190555083600160008282546111eb9190611b34565b925050819055503373ffffffffffffffffffffffffffffffffffffffff167ff556991011e831bcfac4f406d547e5e32cdd98267efab83935230d5f8d02c44685600260003373ffffffffffffffffffffffffffffffffffffffff1673ffffffffffffffffffffffffffffffffffffffff1681526020019081526020016000205460015460405161127d93929190611b68565b60405180910390a250505050565b6112936116c5565b6004544210156112cf576040517fe7a42b2800000000000000000000000000000000000000000000000000000000815260040160405180910390fd5b806003819055507f8c7ba3004ed566ca0f3da73aaa1e3470028922c65772882a9b89612e44a72dcf8160405161130591906118db565b60405180910390a150565b33611319611543565b600781905550611327610c8f565b600581905550611336816104a0565b600960008373ffffffffffffffffffffffffffffffffffffffff1673ffffffffffffffffffffffffffffffffffffffff16815260200190815260200160002081905550600754600860008373ffffffffffffffffffffffffffffffffffffffff1673ffffffffffffffffffffffffffffffffffffffff168152602001908152602001600020819055506000600960003373ffffffffffffffffffffffffffffffffffffffff1673ffffffffffffffffffffffffffffffffffffffff168152602001908152602001600020549050600081111561153f576000600960003373ffffffffffffffffffffffffffffffffffffffff1673ffffffffffffffffffffffffffffffffffffffff168152602001908152602001600020819055507f000000000000000000000000000000000000000000000000000000000000000073ffffffffffffffffffffffffffffffffffffffff1663a9059cbb33836040518363ffffffff1660e01b81526004016114ac929190611b9f565b6020604051808303816000875af11580156114cb573d6000803e3d6000fd5b505050506040513d601f19601f820116820180604052508101906114ef9190611c00565b503373ffffffffffffffffffffffffffffffffffffffff167f106f923f993c2149d49b4255ff723acafa1f2d94393f561d3eda32ae348f72418260405161153691906118db565b60405180910390a25b5050565b600080687f8e6f49458e2400000361155f5760075490506115b8565b687f8e6f49458e240000670de0b6b3a764000060055461157d610c8f565b6115879190611a5e565b6006546115949190611a92565b61159e9190611a92565b6115a89190611b03565b6007546115b59190611b34565b90505b90565b6000600260008073ffffffffffffffffffffffffffffffffffffffff1673ffffffffffffffffffffffffffffffffffffffff16815260200190815260200160002054905090565b60075481565b60015481565b6116166116c5565b600073ffffffffffffffffffffffffffffffffffffffff168173ffffffffffffffffffffffffffffffffffffffff16036116885760006040517f1e4fbdf700000000000000000000000000000000000000000000000000000000815260040161167f91906119d8565b60405180910390fd5b6116918161174c565b50565b687f8e6f49458e24000081565b7f000000000000000000000000000000000000000000000000000000000000000081565b6116cd61182a565b73ffffffffffffffffffffffffffffffffffffffff166116eb610cba565b73ffffffffffffffffffffffffffffffffffffffff161461174a5761170e61182a565b6040517f118cdaa700000000000000000000000000000000000000000000000000000000815260040161174191906119d8565b60405180910390fd5b565b60008060009054906101000a900473ffffffffffffffffffffffffffffffffffffffff169050816000806101000a81548173ffffffffffffffffffffffffffffffffffffffff021916908373ffffffffffffffffffffffffffffffffffffffff1602179055508173ffffffffffffffffffffffffffffffffffffffff168173ffffffffffffffffffffffffffffffffffffffff167f8be0079c531659141344cd1fd0a4f28419497f9722a3daafe3b4186f6b6457e060405160405180910390a35050565b6000818311156118205781611822565b825b905092915050565b600033905090565b600080fd5b600073ffffffffffffffffffffffffffffffffffffffff82169050919050565b600061186282611837565b9050919050565b61187281611857565b811461187d57600080fd5b50565b60008135905061188f81611869565b92915050565b6000602082840312156118ab576118aa611832565b5b60006118b984828501611880565b91505092915050565b6000819050919050565b6118d5816118c2565b82525050565b60006020820190506118f060008301846118cc565b92915050565b6118ff816118c2565b811461190a57600080fd5b50565b60008135905061191c816118f6565b92915050565b60006020828403121561193857611937611832565b5b60006119468482850161190d565b91505092915050565b6000819050919050565b600061197461196f61196a84611837565b61194f565b611837565b9050919050565b600061198682611959565b9050919050565b60006119988261197b565b9050919050565b6119a88161198d565b82525050565b60006020820190506119c3600083018461199f565b92915050565b6119d281611857565b82525050565b60006020820190506119ed60008301846119c9565b92915050565b60006119fe8261197b565b9050919050565b611a0e816119f3565b82525050565b6000602082019050611a296000830184611a05565b92915050565b7f4e487b7100000000000000000000000000000000000000000000000000000000600052601160045260246000fd5b6000611a69826118c2565b9150611a74836118c2565b9250828203905081811115611a8c57611a8b611a2f565b5b92915050565b6000611a9d826118c2565b9150611aa8836118c2565b9250828202611ab6816118c2565b91508282048414831517611acd57611acc611a2f565b5b5092915050565b7f4e487b7100000000000000000000000000000000000000000000000000000000600052601260045260246000fd5b6000611b0e826118c2565b9150611b19836118c2565b925082611b2957611b28611ad4565b5b828204905092915050565b6000611b3f826118c2565b9150611b4a836118c2565b9250828201905080821115611b6257611b61611a2f565b5b92915050565b6000606082019050611b7d60008301866118cc565b611b8a60208301856118cc565b611b9760408301846118cc565b949350505050565b6000604082019050611bb460008301856119c9565b611bc160208301846118cc565b9392505050565b60008115159050919050565b611bdd81611bc8565b8114611be857600080fd5b50565b600081519050611bfa81611bd4565b92915050565b600060208284031215611c1657611c15611832565b5b6000611c2484828501611beb565b91505092915050565b600081519050611c3c816118f6565b92915050565b600060208284031215611c5857611c57611832565b5b6000611c6684828501611c2d565b91505092915050565b6000606082019050611c8460008301866119c9565b611c9160208301856119c9565b611c9e60408301846118cc565b94935050505056fea26469706673582212202f5be2bcbeef7a110739ecdf8546014f885f327dcbd7ec0b39b22b8b8e4243e364736f6c634300081c0033",
  "linkReferences": {},
  "deployedLinkReferences": {}
}